:020000040800F2
:10000000FCFF00202D3100001131000011310000F3
:1000100011310000113100001131000011310000D8
:1000200011310000113100001131000011310000C8
:1000300011310000113100001131000011310000B8
:1000400011310000113100001131000011310000A8
:100050001131000011310000113100001131000098
:100060001131000011310000113100001131000088
:100070001131000011310000113100001131000078
:100080001131000011310000113100001131000068
:100090001131000011310000113100001131000058
:1000A0001131000011310000113100001131000048
:1000B0001131000011310000113100001131000038
:1000C0001131000011310000113100001131000028
:1000D0001131000011310000113100001131000018
:1000E0001131000011310000113100001131000008
:1000F00011310000113100001131000011310000F8
:1001000011310000113100001131000011310000E7
:1001100011310000113100001131000011310000D7
:1001200011310000113100001131000011310000C7
:1001300011310000113100001131000011310000B7
:1001400011310000113100001131000011310000A7
:1001500001480068704700BF4804002081B0CDF816
:1001600000E0FF20044C2468A047FE2800D0F8E7F8
:10017000DDF800E001B070474C04002081B019495F
:1001800000EA0101084600220EE0042022E00820D7
:1001900020E010201EE020201CE040201AE08020FB
:1001A00018E040F2001015E00F498842EDD00F49E9
:1001B0008842ECD00E498842EBD00E498842EAD002
:1001C0000D498842E9D00D498842E8D00C4988425F
:1001D000E7D010460B49096841EA000209490A6064
:1001E00001B0704700FCFFFF00080140000C014017
:1001F000001001400014014000180140001C0140A3
:10020000002001401810024083B0CDF800E000F05B
:10021000FF031A09104603F00F02134614E0194AAF
:1002200002921FE0184A02921CE0184A029219E05A
:10023000174A029216E0174A029213E0164A0292F7
:1002400010E0164A02920DE00028E8D00128E9D01B
:100250000228EAD00328EBD00428ECD00528EDD002
:100260000628EED0012212B29A40ADF8042002987E
:100270000A46BDF8041000F007FDDDF800E003B009
:10028000704700BF00080140000C01400010014011
:100290000014014000180140001C014000200140F2
:1002A00081B0202806D00D2802D8092800D301E00B
:1002B000002100E00121C8B201B0704781B0009177
:1002C000014600980A7832B10B780278934202D145
:1002D000491C401CF6E70B7802789A1A10B201B05C
:1002E0007047FFFF82B0CDF800E003461946019148
:1002F000FFF72EFF40F2E83100FB01F201990A609E
:100300001F490978C1F30311C8B21E4909180878BA
:10031000C0B21A1D1968C140116019490988C1F39A
:10032000022188B2174909180878C0B203F20802FE
:10033000191D0968C140116011490988C1F3C22122
:1003400088B2104909180878C0B203F20C02191DCE
:100350000968C14011600A490988C1F3813188B236
:10036000094909180978C8B203F2100203F20C0116
:100370000968B1FBF0F11160DDF800E002B07047F0
:1003800004100240E0360000EC1F000083B0CDF8FE
:1003900000E00346029100F031FF2B4A1278042A54
:1003A00001D1184600E05802FF220146182000F053
:1003B000B9FE18B100F00EFF012040E0FF20234CF1
:1003C0002468A047FF20214C2468A047FE201F4C32
:1003D0002468A047002040F2FF1290420FD8029AF2
:1003E00012181278D4B2ADF80400A0B2174C2468E9
:1003F000A047BDF80400421C91B288B2EBE7FF2091
:10040000124C2468A047FF20104C2468A047FF200E
:100410000E4C2468A04700F01F0292B2052A03D0B8
:1004200000F0D8FE02200AE0FF20084C2468A04714
:10043000B0F1FF0F00D0F7E700F0CCFE0020DDF8B0
:1004400000E003B0704700BF3A0200204C040020D7
:1004500081B0CDF800E0024600F0D0FE0A490978EC
:10046000042901D1104600E05002FF22014612206B
:1004700000F058FE18B100F0ADFE012000E00020B1
:10048000DDF800E001B070473A02002089B0CDF8F5
:1004900000E0834698B28C46BDF824100A9E04AC56
:1004A000ADF80410ADF808002046FFF71BFFBDF8BB
:1004B0000800BDF80410644CA34512D101256DB2AB
:1004C000624C2560624D634C2560634D634C256032
:1004D000634D644C2560644D644C2560079C039417
:1004E00056E0634CA34512D101256DB2614C2560E5
:1004F000614D584C2560614D584C2560604D594CFC
:100500002560604D594C2560069C039440E05E4C8C
:10051000A34512D101256DB25C4C25605C4D4D4C5C
:1005200025605C4D4D4C25605B4D4E4C25605B4D10
:100530004E4C2560069C03942AE0594CA34512D1E9
:1005400001256DB2574C2560574D424C2560574DE3
:10055000424C2560564D434C2560564D434C25601A
:10056000069C039414E0544CA34511D101256DB2AF
:10057000524C2560524D374C2560524D374C25600A
:10058000514D384C2560514D384C2560069C0394E4
:10059000ADF80410ADF80800304600F079FCBDF865
:1005A0000800BDF804100BF1100500242C600BF1BD
:1005B00010052C680C432C600BF10C0500242C60FA
:1005C00018B140F4806080B2FFE70BF10C052C6895
:1005D00004432C600BF10C060125346865F34D349F
:1005E00034600BF10C060125346865F3C3043460F4
:1005F0000BF10C060125346865F3820434600BF1BD
:10060000140500242C60039D192465434FEA8C04D3
:10061000B5FBF4F76424B7FBF4F426013509642430
:100620006C433C1B240104F232056424B5FBF4F452
:1006300004F00F0446EA04040BF10805A4B22C6090
:10064000DDF800E009B0704700380140380342424D
:100650006912000018070020FFFFFFFF1C070020A1
:10066000FFFFFFFF20070020FFFFFFFF2407002000
:1006700000440040C4034242BD120000FFFFFFFFE0
:10068000FFFFFFFFFFFFFFFF00480040C80342429B
:1006900011130000FFFFFFFFFFFFFFFFFFFFFFFF42
:1006A000004C0040CC0342422D130000FFFFFFFF2F
:1006B000FFFFFFFFFFFFFFFF00500040D00342425B
:1006C000D9120000FFFFFFFFFFFFFFFFFFFFFFFF4B
:1006D00083B0CDF800E0304A1188304800884843A4
:1006E000ADF804000220ADF806001046018840F283
:1006F0000200B0FBF1F080B281B2294800680B180B
:100700001046028840F20201B1FBF2F002FB101029
:1007100080B2410089B22348401802901846FFF782
:1007200097FE0121204801701E4800F043F8BDF8F3
:100730000410BDF80600884215D20298008800B95E
:1007400011E00298811C0291BDF80600401CADF832
:10075000060016480068814204D1124802901148F0
:1007600000F028F8E3E700F05FF928B11021104805
:1007700001704FF6FF700AE0BDF80410BDF80600E6
:10078000884202D14FF6FF7001E0BDF80600DDF8A7
:1007900000E003B0704700BF10070020DE06002015
:1007A000E00600205004002050060020EC06002047
:1007B000F106002085B0CDF800E00290FFF7CEFCF6
:1007C00000239AB2B2F5007F10D2029989180491E1
:1007D000ADF80420FF200C4C2468A047BDF804208D
:1007E00004990870511C8BB29AB2EBE7FF20064CBB
:1007F0002468A047FF20044C2468A0470020DDF8AF
:1008000000E005B0704700BF4C04002085B0CDF873
:1008100000E0ADF8101081B2304A1288B1FBF2F25C
:1008200092B203922E4A1368039AD41803940123B8
:100830002C4A1370ADF804102B49204601F03EF805
:10084000BDF8041028B11023284A13704FF6FF702A
:1008500040E0224A1388B1FBF3F203FB121292B27A
:1008600053009BB298B2204AD31804AC22781A7075
:10087000431C9BB21C4AD318621C12781A701A4986
:100880000398FFF783FD28B10523184A13704FF62C
:10089000FF701FE00122ADF80820154A1378BDF85B
:1008A00008209A4215D2134A1388039AD218039249
:1008B0000D491046FFF76AFD28B105230B4A137056
:1008C0004FF6FF7006E0BDF80820521CADF8082076
:1008D000E3E70020DDF800E005B0704710070020D6
:1008E000E00600205006002050040020F106002001
:1008F000DA060020DE06002087B0CDF800E004A96B
:100900000D4604460194029503900B2212B208464C
:10091000202100F08BFC0398029D019C0646317853
:1009200031B13178C8B2FFF7BBFC08B1761CF6E7ED
:1009300023493046FFF7C2FC38B904AA2E211170B2
:10094000521C2E211170204630E01E493046FFF720
:10095000B5FC20B904AA2E211170204626E02246BB
:100960002C463346197871B11978C8B2FFF798FC54
:1009700048B919782E2906D019782170611C0846CB
:100980005B1C0446EEE719782E2901D1581C00E0C3
:10099000184604AB083301901046019A11782029BB
:1009A00004D9117819705B1C521CF7E704A90B22BB
:1009B00012B201F061F8DDF800E007B0704700BF47
:1009C0003B0200203E02002081B0014608460B4653
:1009D0000246401C117801B1FAE7C11A491E08B25B
:1009E00001B0704781B07A2808D8612807D34FF644
:1009F000DF7109B200EA0101C8B2FFE7FFE701B009
:100A00007047FFFF81B000F20C02116000F2080293
:100A10001368C3F3000202B9F8E700F20C0212688F
:100A200090B201B07047FFFF82B0CDF800E040F215
:100A30004C00214C2468A04700201F4C2468A0478C
:100A400000201D4C2468A04700201B4C2468A047B0
:100A50000020194C2468A047FF20174C2468A047A9
:100A60000022ADF80420FF20134C2468A047BDF8F5
:100A7000042083B2511C8AB200F0800080B210B111
:100A8000642A00D2EDE703F0800080B238B1ADF8FF
:100A9000043000F09FFBBDF8043098B208E0FF205E
:100AA000054C2468A0470028F9D000F093FB0020F3
:100AB000DDF800E002B070474C04002081B0ADF8D2
:100AC00000200246BDF9000004B2431E18B25CB11A
:100AD00014780B789C4204D014780B78E31A18B27F
:100AE00004E0521C491CEFE7002000B201B070473F
:100AF00082B0CDF800E002460846154604460021C3
:100B0000134608290AD22A78202A00D106E02A783A
:100B10002270641C6D1C491C89B2F2E703F20802C2
:100B200011461278202A16D02E222270661C00222E
:100B300005460C4691B203290AD22278202A00D118
:100B400006E022783270761C641C491C89B2F2E7F8
:100B500030461E4602E01E46054620460022027030
:100B600005F20D0306F20B0212781A7005F21C0250
:100B7000019206F21C02104600F03CFE019A106041
:100B800005F22002019206F21A02104600F076F9F0
:100B9000019A108006F20E021378521C127812028B
:100BA00092B29C18A4B2A0B205F20E02D31CE20AC3
:100BB0001A7005F20E02131D420992B202F03F02B2
:100BC0001A7005F20E02531D00F01F0292B252007D
:100BD0001A7006F210021378521C1278120292B2A6
:100BE0009C18A4B2A0B205F20E02931C04F01F02DE
:100BF0001A7005F20E02531C420992B202F00F0263
:100C00001A7005F20E03420A1A7006F216021378E1
:100C1000521C1278120292B29C18A4B2A0B205F231
:100C20001402D31CE20A1A7005F21402131D4209C1
:100C300092B202F03F021A7005F21402531D00F046
:100C40001F0292B252001A7006F218021378521C58
:100C50001278120292B29C18A4B2A0B205F2140249
:100C6000931C04F01F021A7005F21402531C42096F
:100C700092B202F00F021A7005F21403420A1A70BF
:100C8000DDF800E002B0704781B0CDF800E08CB232
:100C90001546774B00EA03031E461846FFF76EFA27
:100CA000B4F1FF0F0CD1734B9D4203D14FF033339E
:100CB0003360D9E0422D03D14FF044333360D3E0A9
:100CC0004FF6FF739C4214D16A4B9D4207D14FF0FF
:100CD00033333360341D4FF033332360C4E0422D8F
:100CE00007D14FF044333360341D4FF04433236059
:100CF000BAE00021002005F001030BB100211DE046
:100D000005F0020333B105F4C0730BB1082100E014
:100D1000042113E005F0040333B105F020030BB107
:100D2000042100E0002109E005F0080333B105F0DB
:100D300020030BB10C2100E00821FFE74E4B05EA30
:100D400003030BB1032009E005F400730BB102208B
:100D500004E005F480630BB10120FFE705F00C030C
:100D60000BB10143FFE704F0FF039BB2002B3BD024
:100D7000376800201FFA84F832462E4608282CD205
:100D80004FF0010303FA00F408EA0403A34222D15E
:100D900085004FF00F03AB40DB4307EA030401FA81
:100DA00005F344EA03031D4606F48173B3F5817F1E
:100DB00005D102F214044FF001038340236006F0D2
:100DC0008203822B05D102F210044FF0010383400D
:100DD00023602F46FFE7401CD0E717601FFA88F01A
:100DE0000F463146164602E00F462946A0B2B0F142
:100DF000FF0F39D9331DD3F800800022082A30D2E2
:100E000002F208044FF0010303FA04F400EA0403B9
:100E1000A34224D195004FF00F03AB40DB4308EA17
:100E2000030807FA05F348EA030801F48173B3F5F0
:100E3000817F07D106F2140502F208044FF0010386
:100E4000A3402B6001F08203822B07D106F210052C
:100E500002F208044FF00103A3402B60FFE7521C8D
:100E6000CCE7331DC3F80080DDF800E001B0704727
:100E700000FCFFFF140008000008080081B0411CBE
:100E800009780A0292B20178511888B201B070470D
:100E900081B0CDF800E0012252B23E490A6000F272
:100EA00068010B686FF0006103EA0102144603F069
:100EB0000061C90E0B4602F00041B1F1004F02D1B2
:100EC00035490A6801E035490A6804F47021090CC3
:100ED0000E464FF6FF7104EA01010D4604F440117D
:100EE000B1F5401F0DD16FF0706102EA01010E46AD
:100EF0002A490A686FF070610A4028490A60324640
:100F000016E004F48011B1F5801F09D14FF0030100
:100F1000B140C94302EA010141F070610A4607E0AD
:100F2000610D090105FA01F1C9430A4042F07062FE
:100F30002BB1610D090105FA01F10A43FFE704F045
:100F40000041B1F1004F02D113490A6001E0134999
:100F50000A6040F2000A81464FEA8A0109EB01016A
:100F60000968B1F1FF3F10D009F134014FEA8A035B
:100F7000C91809680A4609EB0301096808461146C1
:100F8000FFF742F90AF1010AE6E7DDF800E001B0F7
:100F9000704700BF000342421C00014004000140B2
:100FA00081B000230360CB009BB242EA03030468D4
:100FB0009BB244EA03030360051D13141C462B680F
:100FC00064F382032B6000F21C0500242B6864F399
:100FD000CB232B600124036864F38613036001B004
:100FE0007047FFFF81B0ADF800100146BDF800006A
:100FF0000B68C3F3C01202B9FAE70A1D106001B012
:101000007047FFFF84B0CDF800E08DF80C000021A0
:10101000ADF80410BDF8042042F210718A4280F04D
:1010200077809DF80C1099B900F0E8F8FF220021B4
:10103000012000F077F8ADF8060000F0CBF8BDF81D
:10104000061021B9002235490A70002061E059E0FC
:1010500000F0D4F8FF220021372000F063F8ADF84B
:10106000060000F0B7F8BDF80610012949D100F0DC
:10107000C5F8FF224FF08041292000F053F8ADF869
:10108000060000F0A7F8BDF80610002938D19DF839
:101090000C1002292FD100F0B1F8FF2200213A20D4
:1010A00000F040F8ADF80600FF201D4C2468A04772
:1010B000ADF80800FF201A4C2468A047FF20184C08
:1010C0002468A047FF20164C2468A04700F082F84F
:1010D000BDF8061071B9BDF8081001F0400189B2E1
:1010E00019B104220D490A7002E003220B490A706B
:1010F00000200EE004E0012208490A70002008E008
:1011000000E005E0BDF80410491CADF8041081E7CB
:101110000120DDF800E004B0704700BF3A02002073
:101120004C04002084B0CDF800E002918DF80C2032
:1011300000F24004A0B21F4C2468A04702ABDB1CA5
:101140001B78DCB2A0B21B4C2468A04702AB9B1CEE
:101150001B78DCB2A0B2174C2468A04702AB5B1C22
:101160001B78DCB2A0B2134C2468A04702AB1B78FA
:10117000DCB2A0B20F4C2468A0479DF80C000D4CC7
:101180002468A0470021ADF80410FF20094C246812
:10119000A047BDF8041082B24B1C99B200F0800346
:1011A0009BB213B1642900D2EDE790B2DDF800E004
:1011B00004B070474C04002081B0CDF800E081B24B
:1011C0000348FFF71FFCDDF800E001B0704700BFE7
:1011D0000038004081B0CDF800E0012149B2054857
:1011E0000160FF20044C2468A047DDF800E001B056
:1011F000704700BF8C8122424C04002081B0002146
:1012000049B20248016001B0704700BF8C812242A0
:1012100081B0CDF800E081B20348FFF7F3FBDDF8C1
:1012200000E001B0704700BF003C004081B013B245
:101230000246C8B211461DB22CB26B1E1DB214B1CB
:101240000870491CF8E7104601B0704781B0CDF82E
:1012500000E081B20348FFF7D5FBDDF800E001B004
:10126000704700BF003C004081B0CDF800E081B283
:101270000348FFF7B7FEDDF800E001B0704700BF9C
:101280000038014081B0CDF800E081B20348FFF79B
:10129000B9FBDDF800E001B0704700BF003001404D
:1012A00081B0CDF800E081B20348FFF7ABFBDDF879
:1012B00000E001B0704700BF0038004081B0CDF8B9
:1012C00000E081B20348FFF78DFEDDF800E001B0D9
:1012D000704700BF0044004081B0CDF800E081B20B
:1012E0000348FFF77FFEDDF800E001B0704700BF64
:1012F0000050004081B0CDF800E081B20348FFF714
:1013000081FBDDF800E001B0704700BF0030014014
:1013100081B0CDF800E081B20348FFF763FEDDF84D
:1013200000E001B0704700BF0048004081B0CDF838
:1013300000E081B20348FFF755FEDDF800E001B0A0
:10134000704700BF004C004081B0CDF800E0019D27
:101350002C4610B408B493B28AB201460348FFF792
:1013600095F802B0DDF800E001B07047004400409D
:1013700081B0CDF800E0019D2C4610B408B493B2C2
:101380008AB201460348FFF781F802B0DDF800E0B9
:1013900001B070470048004086B0CDF800E00390EF
:1013A0000491039A12B9FF2040B272E00398FFF74C
:1013B000A3FA3A4A13683A4A12689A4204D1394A5F
:1013C0001288ADF8062006E0374A1388374A12889B
:1013D0005A43ADF80620324A12680592344A029206
:1013E0000598FFF735F80123324A13703048FFF7AC
:1013F000E1F90022ADF80420BDF80630BDF8042064
:101400009A423BD20B2212B203990298FFF756FB85
:10141000F0B9FFF709FB28B11023274A1370FF200A
:1014200040B236E0049A82B104990298FFF760FB5B
:10143000049A02F22403059A1A60049A02F228041C
:10144000029B1B4A9A1A52092280002040B220E0D7
:10145000029A02F220030293184A1268934207D1BB
:10146000059A521C0592124A02921148FFF7A2F9FE
:10147000BDF80420521CADF80420BDE7FFF7D4FAF4
:1014800028B110230C4A1370FF2040B201E0FF2066
:1014900040B2DDF800E006B0704700BFE40600206F
:1014A000F4060020DC0600200E070020D6060020EF
:1014B0005004002050060020F1060020EC06002019
:1014C00081B0CDF800E0019D2C4610B408B493B271
:1014D0008AB201460348FEF7D9FF02B0DDF800E00A
:1014E00001B070470038014083B0CDF800E08DF8BE
:1014F000040002910B4C0C4B1C600C4C0C4B1C6000
:10150000012464B20B4B1C601046FFF7C1FC029A29
:101510009DF804100848FFF743FDDDF800E003B034
:10152000704700BF111200004C0400204D12000053
:1015300014070020BC034242003C004087B0CDF8B5
:1015400000E0049005910692049B1A331846FFF7B9
:1015500095FC069B1880069B1B88B3B9FFF7B8F86B
:10156000069B1880069B1C884FF6FF739C4205D192
:101570000424674B1C70FF2040B2C5E0069B1B880B
:101580004FF6FF7198B2FFF741F9069B1B889C1E2E
:10159000604B1B885C43604B1B681C19059B1C60DF
:1015A0005E4B1C685E4B1B68A34204D15D4B1B88DD
:1015B000ADF80A3006E05C4B1C88564B1B88634331
:1015C000ADF80A30564B1B680393584801900398B6
:1015D000FEF73EFF0124564B1C705448FFF7EAF813
:1015E00001980023ADF808300146BDF80A40BDF867
:1015F0000830A34280F07A800B78E52B03D00B787B
:10160000202B00D35AE00191FFF70EFA019928B17F
:1016100010243F4B1C70FF2040B275E00191202246
:1016200012B20846049900F027FA019901F21A044F
:10163000069B1B8803F0FF03237001F21A035C1C56
:10164000069B1B881B0A237001F20E04394B1B7882
:10165000237001F20E035C1C374E3378237001F2C5
:101660001004364B1B78237001F210035C1C344DC0
:101670002B78237001F216042E4B1B78237001F295
:1016800016035C1C33461B78237001F218042B4BA5
:101690001B78237001F218035C1C2B461B78237007
:1016A00022490398FEF772FE28B10524184B1C70DE
:1016B000FF2040B228E0002040B225E001F22004E3
:1016C0002746204B1B689C4209D1039B5B1C03935C
:1016D000164F01971548FFF76DF8019FFFE7BDF81A
:1016E00008305B1CADF8083039467EE7FFF79CF9FF
:1016F00028B11024064B1C70FF2040B204E00624E1
:10170000034B1C70FF2040B2DDF800E007B07047CB
:10171000F1060020D6060020E8060020E40600209E
:10172000F4060020DC0600200E07002050040020F4
:10173000500600200A0700200B0700200C0700209D
:101740000D070020EC06002082B0CDF800E084B246
:1017500016490988B4FBF1F189B288B214490968C5
:101760004318012213490A70ADF804401249184683
:1017700000F0A4F8BDF8044028B110220F490A7007
:101780004FF6FF700DE009490A88B4FBF2F102FB45
:10179000114189B24A0092B2074989180846FFF7F9
:1017A0006DFBDDF800E002B0704700BF10070020BD
:1017B000E00600205006002050040020F106002022
:1017C00081B0CDF800E0044A89B2FFF75DFADDF898
:1017D00000E001B0704700BF1400080081B0CDF8F0
:1017E00000E04FF0420289B2FFF74EFADDF800E068
:1017F00001B0704781B0C11C09780A02811C0978C8
:1018000051180A02411C097851180A02017851182E
:10181000084601B07047FFFF81B0CDF800E00446F4
:101820002046FFF7D1F8C2B2C1B211B9FF2040B2D1
:1018300040E00C2A02D9FE2040B23BE021782E295C
:1018400002D1FD2040B235E0002676B22546D3B263
:10185000D0B22246002B12D9D11809782E290BD1EB
:10186000012464B2082B02D9FC2040B222E0591CAA
:1018700009B2521863B204E05B1EDBB2EAE72A4603
:1018800073B2012B04D0082802D9FB2040B211E02A
:10189000012B0DD11046FFF797F8C2B2C1B211B9B2
:1018A000F52040B206E0032A02D9F42040B201E05C
:1018B000002040B2DDF800E001B0704785B0CDF8FF
:1018C00000E003460291FFF799FC1E4A1278042AB1
:1018D00001D1184600E05802FF2201461120FFF70F
:1018E00021FC18B1FFF776FC012027E0FF20164C01
:1018F0002468A047FE2800D0F8E7002399B2B1F58C
:10190000007F10D2029A52180492ADF80410FF2002
:101910000D4C2468A047BDF80410049A10704A1CAE
:1019200093B299B2EBE7FF20074C2468A047FF2051
:10193000054C2468A047FFF74DFC0020DDF800E0CF
:1019400005B070473A0200204C04002081B0CDF869
:1019500000E001213148017031480078C100314870
:101960004018001D00683049FFF7A8FF28B110217A
:101970002E480170FF2040B24CE02D48FFF77EFA60
:101980002C4908802C4801782C4801802C48FFF70E
:1019900075FA2C4908802C4801782C4801702C4895
:1019A000FFF76CFA2B4908802B48FFF767FA2B4B9F
:1019B00018801B480078C1001A484018001D0168B3
:1019C000204800880A1826480260184601881F48E7
:1019D0000078484380B21418224B1C601D480088D0
:1019E000410189B2134A1088B1FBF0F080B221188E
:1019F0001D4801601046008841081C4801801046BF
:101A0000008841091A480180184601681948016098
:101A1000002040B2DDF800E001B070475006002021
:101A2000F0060020B406002050040020F10600203B
:101A30005B040020D40600205D040020D6060020B0
:101A40005E040020D806002060040020DA06002092
:101A500061040020DC06002066040020DE06002071
:101A6000E0060020E4060020E80600201007002021
:101A70000E070020F406002081B00B4601461846F0
:101A80000D4614B2531E1AB224B103782B706D1C8C
:101A9000401CF6E7084601B07047FFFF82B0CDF862
:101AA00000E0002504460B460D2D0BD26219019271
:101AB0005A191278D0B2FEF795FF019A10706D1C7A
:101AC000EDB2F1E7DDF800E002B0704701480068D0
:101AD000704700BF1881224201480068704700BF6C
:101AE0003081224201480068704700BF18812142BE
:101AF00001480068704700BF148122420148006815
:101B0000704700BF2C01224201480068704700BFA7
:101B10003001224201480068704700BF30812242F4
:101B200001480068704700BF280122420148006850
:101B3000704700BF1C8121429BB0CDF800E00746F2
:101B40008DF864108DF868203846FFF765FE28B1DF
:101B50001224874B1C70FF2040B204E139468548AF
:101B6000FFF79CFF844B1B88BBB1844B93F900307B
:101B70005C01834B1B194FF020061D46814C2378D6
:101B80002B70761E641C6D1C002EF8D100247A4B3D
:101B90001C80FF2464B2794B1C7014AB0D2212B26E
:101BA00074491846FFF768FF09AB19467148FFF7FB
:101BB000F3FB00284CDA9DF86840C4F3C013002BF7
:101BC00040D040F20003ADF85E304FF000031893B0
:101BD0009DF8683003F05803DBB22BB10824644B46
:101BE0001C70FF2040B2BEE001AB202212B20021E7
:101BF0001846FFF71BFB9DF8683003F07F038DF854
:101C00000F3001AB0B2212B25A491846FFF734FFCE
:101C10000DF15E0518AC01AB2A4621461846FFF7C8
:101C20008DFC002802DAFF2040B29CE009AC14AB26
:101C300021461846FFF7B0FB002802DAFF2040B229
:101C400091E005E00D244A4B1C70FF2040B28AE071
:101C50009DF8313003F05803DBB22BB10824444B1C
:101C60001C70FF2040B27EE00020022825D24401F3
:101C7000434B1B1919461C331B88D3B18B1D1C8881
:101C8000BDF84430A34214D101F21C049DF8643025
:101C900023804FF020063B4D0C46FFE723782B7046
:101CA000761E641C6D1C002EF8D1344B187040B2A7
:101CB00059E0431C99B288B2D7E70027022F4DD2D2
:101CC0007C012F4B1B191C331B88002B42D17C013C
:101CD0002B4B1B199846202212B200211846FFF701
:101CE000A5FA08F1060508F10C04BDF8443023807C
:101CF00023882B8008F11C049DF864302380129BFC
:101D0000C8F8003008F10404BDF84C305B012380B2
:101D100008F11804109B236008F1100508F10C036A
:101D20001B889C1E184B1B885C43184B1B681B1997
:101D30002B604FF02006134D4446B8B2FFE72378DE
:101D40002B70761E641C6D1C002EF8D10B4B187086
:101D500040B208E07B1C98B287B2AFE70924044B7D
:101D60001C70FE2040B2DDF800E01BB0704700BFE1
:101D7000F1060020FD060020B0060020FC06002031
:101D80005406002094060020D6060020E806002015
:101D900081B0CDF800E001212B48017040F2002213
:101DA00012B200212948FFF741FA0026022E0AD27A
:101DB000710127484018202212B20021FFF736FA9D
:101DC000761CF6B2F2E7202212B200212148FFF77A
:101DD0002DFA0026042E0AD2F1001F4840180822CE
:101DE00012B20021FFF722FA761CF6B2F2E71822AF
:101DF00012B200211948FFF719FA13491848016077
:101E0000002118480170002117480160002117487F
:101E10000170002116480180002116480160FF2151
:101E200049B2154801700D2212B200211348FFF784
:101E3000FDF9002112480180002112480180DDF8DF
:101E400000E001B0704700BF5006002050040020A1
:101E50005406002094060020B4060020D40600207A
:101E6000EC060020F0060020F4060020F106002019
:101E7000F2060020F8060020FC060020FD060020E7
:101E80000A0700200C07002083B0CDF800E00521F0
:101E90003C48017041F20C40C4F201004FF00101D6
:101EA0004FEAC101384A89B2FEF7EEFEFFF792F918
:101EB00000210A290AD2ADF80410FF20334C24680F
:101EC000A047BDF80410481C81B2F2E7FFF796F96D
:101ED000952200210020FFF725F9ADF80800FFF753
:101EE00079F9BDF80800012801D0012046E0FFF78C
:101EF00085F9872240F2AA110820FFF713F9ADF8FF
:101F00000800FF20214C2468A047FF201F4C2468B4
:101F1000A047FF201D4C2468A047FF201B4C2468CD
:101F2000A047FFF757F9BDF80800012807D00120A6
:101F3000FFF768F810B10020FFF764F802E0022014
:101F4000FFF760F80F480078052801D1022015E05E
:101F50000C480078042810D0FFF750F9FF2240F217
:101F600000211020FFF7DEF8ADF80800FFF732F986
:101F7000BDF8080008B1032000E00020DDF800E013
:101F800003B070473A020020140008004C040020FF
:101F900081B0CDF800E00178CCB2A0B2034C246847
:101FA000A0470020DDF800E001B0704744040020A5
:101FB00083B0CDF800E08AB2014690B283B2421EEF
:101FC00090B26BB10A78D4B2ADF804000291A0B21D
:101FD000054C2468A0470299BDF80400491CEDE7B0
:101FE000DDF800E003B0704738070020020406085F
:101FF00044F67F77C0F212077F1EFDD100BF00BFFD
:1020000000BF00BF00BF704782B0CDF800E0374985
:10201000098829B9072236490A704FF0FF3061E07C
:10202000012234490A7034490968884204D9324986
:102030000A6832490A6001E03049086030490A887C
:102040002E490968B1FBF2F22E490988B2FBF1F181
:1020500088B22D490A882D490A8082B2002A1AD9ED
:102060002A490988ADF8042088B2FFF76DFBBDF856
:102070000420264908804FF6FF71884208D11E4986
:102080000A681E490A600A2219490A70002029E0DC
:10209000521E92B2E2E71A4E3288184D2968B1FBFF
:1020A000F2F2184C2188B2FBF1F301FB132318491B
:1020B0000B80164909888A1E214609884A4315491A
:1020C00009688A1899B2521813490A6031460B8878
:1020D00029460968B1FBF3F203FB12120F490A808B
:1020E00029460868DDF800E002B07047B00600201D
:1020F000F106002050060020AC0600209C060020BF
:10210000D4060020D60600209A060020A006002053
:10211000A8060020E8060020A4060020AA06002049
:1021200083B0CDF800E001215948017059490020E1
:10213000FFF7C4FB20B1102157480170FF20A2E037
:10214000544901F5FF700078552801D001209AE02C
:1021500001F2FF100078AA2801D0012093E00022AC
:102160000878E92802D10120C2B2FFE70878EB28FD
:1021700005D1881C0078902803D1012000E0D0B25E
:1021800000E0D0B2002848D0444A80201070111DD1
:10219000002008600192FFF7D9FB019A002801DABC
:1021A000012070E03E480088002830D03D4801788A
:1021B0003D4800780843C0B248B13A48007803026D
:1021C000394800781B18511C0420087004E0374877
:1021D0000368511C0620087035480068191A3548F4
:1021E0000088B1FBF0F10B4640F6F570814204D255
:1021F000511C01200870012045E04FF6F570834224
:1022000004D9511C0B20087001203CE004E0511C53
:102210000B200870012036E034E0274C0023042B0B
:1022200016D2D9001D4841180A4620780870201D92
:102230000446511C00780870211D0C46101D0290A8
:102240000846FFF7D7FA029908605B1C9BB2E6E7E5
:102250001A480078C10011484018401C0078042832
:102260000AD016480078C1000C484018401C00787D
:10227000062801D0012006E0FFF768FB002801DAFC
:10228000012000E00020DDF800E003B0704700BF4F
:102290005006002050040020F1060020B406002063
:1022A000DE06002064040020630400207004002087
:1022B000E8060020D60600200E060020F0060020CA
:1022C00001480068704700BF388122420149086018
:1022D000704700BFA081224201490860704700BFDB
:1022E0009881214201490860704700BF9C812142CA
:1022F00001490860704700BF800121420149086020
:10230000704700BFA881224201490860704700BFA2
:10231000A481224201490860704700BF9401214214
:1023200001490860704700BFAC01224201490860C2
:10233000704700BFB001224201490860704700BFEA
:10234000B081224201490860704700BF8C012242DF
:1023500001490860704700BFB88122420149086006
:10236000704700BFA801224201490860704700BFC2
:10237000B001224281B0CDF800E0011D0A68016879
:10238000C8B21146034AFFF7AFF80020DDF800E0BD
:1023900001B070471436000081B0CDF800E0094963
:1023A00002B440F2000340F2000240F20001FEF7E6
:1023B000DFFF01B0044A05490A600020DDF800E0B3
:1023C00001B070473C3500001113000044040020A8
:1023D00081B0CDF800E0094902B440F2000340F2B8
:1023E000000240F20001FEF7AFFF01B0044A0549C8
:1023F0000A600020DDF800E001B07047D034000032
:10240000BD1200004404002081B0CDF800E0A9E036
:10241000012905D140F210016548FFF7DFF904E01A
:1024200040F210016248FFF7CBF9BBE0012905D16A
:1024300040F204015F48FFF7D1F904E040F20401E3
:102440005C48FFF7BDF9ADE0012905D142F200017A
:102450005948FFF7C3F904E042F200015648FFF77C
:10246000AFF99FE0012905D140F200415148FFF743
:10247000B5F904E040F200414E48FFF7A1F991E0C0
:10248000012905D140F600014A48FFF7A7F904E009
:1024900040F600014748FFF793F983E0012905D191
:1024A00041F200014348FFF799F904E041F20001CD
:1024B0004048FFF785F975E0012905D140F2010197
:1024C0003B48FFF78BF904E040F201013848FFF781
:1024D00077F967E0012905D140F200413648FFF75E
:1024E0007DF904E040F200413348FFF769F959E013
:1024F000012905D140F200212F48FFF76FF904E0D0
:1025000040F200212C48FFF75BF94BE0012905D18F
:1025100040F200112848FFF761F904E040F2001191
:102520002548FFF74DF93DE0012905D140F2400172
:102530002248FFF753F904E040F240011F48FFF73B
:102540003FF92FE0012905D140F280011B48FFF738
:1025500045F904E040F280011848FFF731F921E025
:10256000012020E000283FF453AF01283FF45EAF84
:1025700002283FF469AF03283FF474AF04283FF406
:102580007FAF05283FF48AAF06283FF495AF0728B0
:10259000A0D00828ACD00928B8D00A28C4D00B286D
:1025A000D0D0DDE70020DDF800E001B0704700BFCB
:1025B000000801400010014000140140000C0140DF
:1025C00081B0CDF800E0A9E0012905D140F2200159
:1025D0006548FFF703F904E040F220016248FFF785
:1025E000EFF8BBE0012905D140F208015F48FFF791
:1025F000F5F804E040F208015C48FFF7E1F8ADE0CF
:10260000012905D144F200015948FFF7E7F804E039
:1026100044F200015648FFF7D3F89FE0012905D1A5
:1026200040F200415148FFF7D9F804E040F2004180
:102630004E48FFF7C5F891E0012905D140F60001A9
:102640004A48FFF7CBF804E040F600014748FFF79F
:10265000B7F883E0012905D141F200014348FFF7B3
:10266000BDF804E041F200014048FFF7A9F875E029
:10267000012905D141F200013D48FFF7AFF804E020
:1026800041F200013A48FFF79BF867E0012905D1C4
:1026900040F600013648FFF7A1F804E040F60001DB
:1026A0003348FFF78DF859E0012905D140F2400188
:1026B0002F48FFF793F804E040F240012C48FFF761
:1026C0007FF84BE0012905D140F220012848FFF7AF
:1026D00085F804E040F220012548FFF771F83DE05D
:1026E000012905D140F240012248FFF777F804E0C4
:1026F00040F240011F48FFF763F82FE0012905D1A0
:1027000040F280011B48FFF769F804E040F28001C5
:102710001848FFF755F821E0012020E000283FF499
:1027200053AF01283FF45EAF02283FF469AF03289E
:102730003FF474AF04283FF47FAF05283FF48AAF1D
:1027400006283FF495AF0728A0D00828ACD0092868
:10275000B8D00A28C4D00B28D0D0DDE70020DDF89F
:1027600000E001B0704700BF0008014000100140C8
:1027700000140140000C014081B0CDF800E0011DC3
:102780000A680168C8B21146034AFEF7ADFE002090
:10279000DDF800E001B070471436000081B0CDF8DC
:1027A00000E0094902B440F2000340F2000240F2A6
:1027B0000001FEF785FE01B0044A05490A600020C9
:1027C000DDF800E001B07047A83500006912000094
:1027D0004404002001490860704700BFB4812242D0
:1027E00001490860704700BFA80122420149086002
:1027F000704700BFAC01224281B0CDF800E009492A
:1028000002B440F2000340F2000240F20001FEF781
:102810009BFD01B0044A05490A600020DDF800E094
:1028200001B07047D0340000BD1200004404002005
:1028300001490860704700BF9001214201490860CA
:10284000704700BF8801224201480068704700BFFE
:102850002C01224201480068704700BF300122422B
:1028600001480068704700BF00012142014800682C
:10287000704700BF0801224201480068704700BF4E
:102880003481224201480068704700BF280122427B
:1028900001480068704700BF288122420148006853
:1028A000704700BF1C81214201480068704700BF8B
:1028B0001401214201480068704700BF0C01224208
:1028C00001480068704700BF248122420148006827
:1028D000704700BF2081224201480068704700BF56
:1028E00018812142026803490A60011D0A680249F1
:1028F0000A607047380700203C07002000F23001D2
:102900000A6808490A6000F208010A6806490A6074
:10291000011D0A6805490A6000F21C010A680449A1
:102920000A607047340700202C0700203007002081
:102930002807002001490860704700BF98812142A4
:1029400001490860704700BF9C812142014908602D
:10295000704700BFB081224201490860704700BF44
:102960009881224201480068704700BF100121424F
:1029700001490860704700BF9481224282B0CDF8BF
:1029800000E000228DF80420FFF77EFA9DF8042075
:10299000511CC0B218B1322901D2CAB2F2E73229B1
:1029A00001D3FF2003E0FFF7F3F9FFF7B9FBDDF8F0
:1029B00000E002B07047FFFF81B0CDF800E08B4629
:1029C00009E05846FFF7D8FE0AE05846FFF7D2FC68
:1029D00006E0012004E00028F3D00128F5D0F8E754
:1029E000DDF800E001B0704782B0CDF800E0019062
:1029F0000B4C2468A04708B901200CE00020094CCA
:102A00002468A04720210198FFF7D2FA0120054C45
:102A10002468A0470020DDF800E002B0704700BF46
:102A2000340700202807002083B0CDF800E0C1B2B1
:102A30000E4C24688DF80410A0479DF8041008B9C6
:102A400001200FE08DF808100020094C2468A047F1
:102A500002A908460121FFF7ABFA0120044C2468C3
:102A6000A0470020DDF800E003B0704734070020E5
:102A70002807002082B0CDF800E0044641490988CB
:102A800001F0010189B219B907223F490A7075E0C6
:102A90003E490A683E490968914203D30B223A49EC
:102AA0000A706BE03B490988B1F5007F40F0458032
:102AB000002238490A80384B19884A1C92B21A8081
:102AC000364909888A4223D1002233490A80344991
:102AD0000988019488B2FEF737FE019C30490880CE
:102AE0004FF6FF71884207D128490A6828490A60D1
:102AF0000A2225490A7041E0294909888A1E274986
:102B000009884A43274909688A1827490A6003E067
:102B1000254A1168491C1160002224490A70224983
:102B20000968019408462249FEF7C8FE019C18B1C5
:102B3000102215490A7021E012E01C49097879B188
:102B400000221A490A701849096801940846184970
:102B5000FEF7B4FE019C18B110220B490A700DE07B
:102B60000C4B1A881249891809782170194609886E
:102B7000491C1980064A1168491C1160DDF800E003
:102B800002B07047B0060020F1060020AC0600201D
:102B90009C060020AA060020A8060020D6060020D9
:102BA000A0060020E8060020A40600205006002011
:102BB0005004002081B0CDF800E05FFA81F95FFA9F
:102BC00082FA0FE05FFA8AF15FFA89F0FFF71CFCE6
:102BD0000DE05FFA8AF15FFA89F0FFF7F1FC06E099
:102BE000012004E00028EDD00128F2D0F8E7DDF85C
:102BF00000E001B07047FFFF82B0CDF800E00C4963
:102C0000098801F0010189B229B900210160072278
:102C100008490A7007E001900020FFF7F5F90198D4
:102C2000054909680160DDF800E002B0704700BFA7
:102C3000B0060020F1060020AC06002081B0CDF8DF
:102C400000E00120074C2468A0470120064C2468BE
:102C5000A0470120054C2468A047DDF800E001B042
:102C6000704700BF280700202C07002030070020F5
:102C700082B0CDF800E001AC02222270621C10701C
:102C8000A31C0A0A1A70E31C01F0FF021A7000204C
:102C90000A4C2468A04701AA04211046FFF788F9CE
:102CA0000120064C2468A047054C2468A04700B9C1
:102CB000FAE7DDF800E002B0704700BF2C07002003
:102CC0003407002084B0CDF800E0CCB201461D4AA4
:102CD00092F900208DF80C201B4A12788DF80D20F7
:102CE0008DF804400291E2B208460721FEF724FF66
:102CF00002999DF8044043B200281DDA6FF00102EA
:102D0000934217D19DF80D300F4A13709DF90C2096
:102D100053010E4AD21802F21C0300221A80E2B2BA
:102D200008460721FEF708FF002801DA002004E02A
:102D3000022002E0002000E00120DDF800E004B005
:102D4000704700BFFC060020F1060020540600205A
:102D500081B0CDF800E00020084C2468A047FFF7C0
:102D600047F90120054C2468A047054C2468A0477A
:102D700000B9FAE7DDF800E001B070473007002045
:102D80003407002081B0CDF800E003460846FFF785
:102D9000A9FD1846FFF7B2FD0120034C2468A047A7
:102DA000DDF800E001B070472C07002081B0CDF8BD
:102DB00000E0020292B2521891B20B20FFF758FFC6
:102DC000DDF800E001B0704781B0CDF800E011E01F
:102DD0000846FFF7E1FA16E00846FFF7F9FA12E0B5
:102DE0000846FFF7DBFC0EE00846FFF705FD0AE0AA
:102DF000012008E00028EBD00128EDD02028EFD0FA
:102E00003028F1D0F4E7DDF800E001B07047FFFFB3
:102E100083B0CDF800E0024610460D228DF8082060
:102E20000A228DF809201FE0FFF7B2F823E00278AC
:102E30002AB10190FFF7ACF80198401CF7E71AE0BF
:102E400002782AB10190FFF7A3F80198401CF7E738
:102E500002AA1046FFF79CF80DF109021046FFF791
:102E600097F808E0062007E00029DDD00129DED030
:102E70000229E5D0F6E70020DDF800E003B0704756
:102E800081B04FF000094FF0000CBDEB0A0F04DCDD
:102E9000BDEB0B0F01DBD446EA464BF8049BBBEBC2
:102EA0000A0FFAD1BCEB0A0F05DDE246D9F800B0F3
:102EB0000BF1040BF1E701B07047FFFFFFFFFFFFCD
:102EC00081B0CDF800E0012200210020FFF772FE62
:102ED000002201210020FFF76DFE002202210020C8
:102EE000FFF768FE002207210020FFF763FE0C4871
:102EF00001460020FFF760FD42F280512020FFF7DD
:102F000063FF44F67F77C0F212077F1EFDD100BF3A
:102F100000BF00BF00BF00BFDDF800E001B0704798
:102F2000F036000081B01548006840F001011348F8
:102F300001601349134801601048016812480140BC
:102F40000E4801600D4801686FF4802001400B4875
:102F500001600C4801686FF4FE00014009480160FF
:102F6000064801686FF0A0500140044801604FF02E
:102F700000010648016001B0704700BF0010024028
:102F80000000FFF004100240FFFFF6FE2C1002408C
:102F900081B0CDF800E03848FFF72EFE3748022117
:102FA000FFF736FF34480068B0F5007F2ED90021C6
:102FB0003348018032480088B0F5007F0AD230489B
:102FC000018830484018FFF755FD2D490888401CFE
:102FD0000880EFE700212A4801802948008810284E
:102FE0000ED227480088410189B226484018FFF7D1
:102FF000FBFC00B1F5E722490888401C0880ECE79B
:103000001D490868A0F500700860CBE700211C4846
:103010000180194801681A48008888420AD2184875
:10302000018818484018FFF725FD15490888401CFD
:103030000880EEE70021124801800F48016810481F
:10304000008888420DD20E4801880E484018C0B250
:10305000FFF7EAFC00B1F6E709490888401C088040
:10306000EBE709480221FFF7D3FEFEF7C1FFDDF8C9
:1030700000E001B0704700BF4002002019020020AC
:103080002A020020440200202C02002081B0CDF84A
:1030900000E016491648FFF775FEFFF7CFFDFFF772
:1030A00057FE40F600010020FFF7E2FD47F6002141
:1030B0000220FFF7DDFD42F200010320FFF7D8FDFB
:1030C0002F212F20FFF772FE0A480221FFF7A0FEF2
:1030D000FFF754FC00B1FBE700210748FFF7F2FDC2
:1030E00000B9F9E7DDF800E001B07047F8360000FC
:1030F00080360000000000201900002081B01CF87C
:10310000019B0BF8019BBBEB0A0FF8D101B0704794
:1031100081B0FEE701B0704781B00249024801600A
:1031200001B07047401901004804002000F00EF87B
:1031300000F026FBFFF7F0FF00F0E2FAFFF7C0FE19
:10314000FFF7A4FFFFF724FFFCE7FEE781B0CDF80F
:1031500000E0464A464B474C47494BF68030814297
:1031600006D94648006840F002014448016011E079
:1031700045F6C050814206D94048006840F0010140
:103180003E48016006E03D4801686FF007000140DD
:103190003A480160FFF7C6FE3948036039480460C9
:1031A000394802EA00013948016002F0010040B1EB
:1031B00019463648006800F00200002800D1F8E700
:1031C00000E0194602F4803040B10B462F480068F9
:1031D00000F40030002800D1F8E700E00B4602F0D0
:1031E000805068B12948006840F08051274801604C
:1031F0002648006800F00050002800D1F8E7FFE7FB
:1032000002F0806078B12148006840F080611F487A
:10321000016011461A461D48006800F00060002851
:1032200000D1F8E701E011461A4601F0807070B154
:103230001648006840F08071144801601146134838
:10324000006800F0007000B9F9E70A46FFE70C4893
:10325000006800F00C01900000F00C00814200D0EA
:10326000F5E7DDF800E001B0704700BF810001051F
:1032700002841D00440601004019010000200240A4
:10328000041002402C100240FFFF0F00001002400B
:10329000202D2D2D204D4D432046415420696E692F
:1032A0007469616C697A656400736F756E642E6D04
:1032B000703300000000000000000000000000006B
:1032C00000000000000000000000000000000000FE
:1032D00000000000000000000000000000000000EE
:1032E00000000000000000000000000000000000DE
:1032F00000000000000000000000000000000000CE
:1033000000000000000000000000000000000000BD
:1033100000000000000000000000000000000000AD
:10332000000000000000000000000000000000009D
:10333000000000000000000000000000000000008D
:10334000000000000000000000000000000000007D
:10335000000000000000000000000000000000006D
:10336000000000000000000000000000000000005D
:10337000000000000000000000000000000000004D
:10338000000000000000000000000000000000003D
:10339000000000000000000000000000000000002D
:1033A000000000000000000000000000000000001D
:1033B000000000000000000000000000000000000D
:1033C00000000000000000000000000000000000FD
:1033D00000000000000000000000000000000000ED
:1033E00000000000000000000000000000000000DD
:1033F00000000000000000000000000000000000CD
:1034000000000000000000000000000000000000BC
:1034100000000000000000000000000000000000AC
:10342000000000000000000000000000000000009C
:10343000000000000000000000000000000000008C
:10344000000000000000000000000000000000007C
:10345000000000000000000000000000000000006C
:10346000000000000000000000000000000000005C
:10347000000000000000000000000000000000004C
:10348000000000000000000000000000000000003C
:10349000000000000000000000000000000000002C
:1034A000000000000000000000202D2D2D20506C99
:1034B000617920617564696F2E000000202D2D2D2B
:1034C0002046696E697368212000002E2E002E00B0
:1034D0003500000036000000FFFFFFFF0000000085
:1034E00000000000000000000000000000000000DC
:1034F00000000000000000000000000000000000CC
:103500000000000018080000180000000000000083
:1035100000000000000000000000000000000000AB
:10352000000000000000000000000000000000009B
:103530000000000000000000080000083800000043
:1035400039000000FFFFFFFF000000000000000046
:10355000000000000000000000000000000000006B
:10356000000000000000000000000000000000005B
:103570001808000018000000000000000000000013
:10358000000000000000000000000000000000003B
:10359000000000000000000000000000000000002B
:1035A0000000000030001408090000000A000000BC
:1035B000FFFFFFFF0000000000000000000000000F
:1035C00000000000000000000000000000000000FB
:1035D00000000000000000000000000018080000CB
:1035E00018000000000000000000000000000000C3
:1035F00000000000000000000000000000000000CB
:1036000000000000000000000000000000000000BA
:10361000040000002A0000002B0000002C00000025
:10362000FFFFFFFF0000000000000000000000009E
:10363000000000000000000000000000000000008A
:10364000000000000000000018080000180800003A
:10365000180800000000000000000000000000004A
:10366000000000000000000000000000000000005A
:103670000000000000000000000000000011200811
:10368000312800003D280000D5270000E127000078
:10369000ED27000069230000F1220000FD22000058
:1036A00009230000CD220000D9220000E5220000FD
:1036B000652900006D280000792800008528000099
:1036C00049280000552800006128000091280000CA
:1036D000C1280000CD280000D92800009D28000046
:1036E00000000000010203040102030406070809A8
:1036F00006000000040300004D120000111200003B
:1037000000B5DFF814B0DFF814A0DFF814C0FFF73D
:10371000F5FC00BD704700BF000000204002002003
:1037200090320000FFFFFFFFFFFFFFFFFFFFFFFFE3
:10373000FFFFFFFFFFFFFFFFFFFFFFFFFFFFFFFF99
:10374000FFFFFFFFFFFFFFFFFFFFFFFFFFFFFFFF89
:10375000FFFFFFFFFFFFFFFFFFFFFFFFFFFFFFFF79
:10376000FFFFFFFFFFFFFFFFFFFFFFFFFFFFFFFF69
:10377000FFFFFFFFFFFFFFFFFFFFFFFFFFFFFFFF59
:1037800000B5DFF810B0DFF810A0FFF779FB00BD3F
:10379000704700BF0000002040070020FFFFFFFF30
:00000001FF
