:10000000FCFF032021360000053600000536000005
:1000100005360000053600000536000005360000F4
:1000200005360000053600000536000005360000E4
:1000300005360000053600000536000005360000D4
:1000400005360000053600000536000005360000C4
:1000500005360000053600000536000005360000B4
:1000600005360000053600000536000005360000A4
:100070000536000005360000053600000536000094
:100080000536000005360000053600000536000084
:100090000536000005360000053600000536000074
:1000A0000536000005360000053600000536000064
:1000B0000536000005360000053600000536000054
:1000C0000536000005360000053600000536000044
:1000D0000536000005360000053600000536000034
:1000E0000536000005360000053600000536000024
:1000F0000536000005360000053600000536000014
:100100000536000005360000053600000536000003
:1001100005360000053600000536000005360000F3
:1001200005360000053600000536000005360000E3
:1001300005360000053600000536000005360000D3
:1001400005360000053600000536000005360000C3
:1001500005360000053600000536000005360000B3
:1001600005360000053600000536000005360000A3
:100170000536000005360000053600000536000093
:100180000536000005360000053600000536000083
:100190000536000005360000053600000536000073
:1001A0000536000005360000053600000536000063
:1001B0000536000005360000053600000536000053
:1001C0000536000005360000053600000536000043
:1001D0000536000005360000053600000536000033
:1001E0000536000005360000053600000536000023
:1001F0000536000005360000053600000536000013
:08020000053600000536000080
:1036200000F010F8FFF7D8FF00F00AFCFFF7EEFFFC
:1036300000F0C6FBFFF7C4FEFFF7F4FEFFF74EFFF6
:04364000FCE7FEE7BE
:1033A80081B01CF8019B0BF8019BBBEB0A0FF8D10D
:0433B80001B07047A9
:1034A00081B04FF000094FF0000CBDEB0A0F04DCB7
:1034B000BDEB0B0F01DBD446EA464BF8049BBBEB9C
:1034C0000A0FFAD1BCEB0A0F05DDE246D9F800B0CD
:0A34D0000BF1040BF1E701B07047A7
:1033C00081B0CDF800E0012200210020FFF7A2FE2D
:1033D000002201210020FFF79DFE00220221002093
:1033E000FFF798FE002207210020FFF793FE0C480C
:1033F00001460020FFF758FD42F280512020FFF7E0
:1034000071FF40F6FE07C0F23D077F1EFDD100BFF1
:1034100000BF00BF00BF00BFDDF800E001B0704793
:04342000A03D0000CB
:1031140081B0CDF800E05FFA81FA5FFA82FB0FE03C
:103124005FFA8BF15FFA8AF0FFF722FC0DE05FFA99
:103134008BF15FFA8AF0FFF7E3FC06E0012004E07C
:103144000028EDD00128F2D0F8E7DDF800E001B066
:023154007047C2
:1029740081B0CDF800E091E0012904D110215A483A
:10298400FFF726F903E010215748FFF7EFF9A5E018
:10299400012904D101215448FFF71AF903E0012168
:1029A4005148FFF7E3F999E0012904D101214F4887
:1029B400FFF70EF903E001214C48FFF7D7F98DE04A
:1029C400012904D104214A48FFF702F903E0042154
:1029D4004748FFF7CBF981E0012904D1102144488D
:1029E400FFF7F6F803E010214148FFF7BFF975E05F
:1029F400012904D120213E48FFF7EAF803E0202111
:102A04003B48FFF7B3F969E0012904D101213948B2
:102A1400FFF7DEF803E001213648FFF7A7F95DE090
:102A2400012904D110213448FFF7D2F803E0102122
:102A34003148FFF79BF951E0012904D140212F4887
:102A4400FFF7C6F803E040212C48FFF78FF945E073
:102A5400012904D180212948FFF7BAF803E0802135
:102A64002648FFF783F939E0012904D104211F48DE
:102A7400FFF7AEF803E004211C48FFF777F92DE0D7
:102A8400012904D108211948FFF7A2F803E008211D
:102A94001648FFF76BF921E0012020E000283FF4FD
:102AA4006BAF01283FF474AF02283FF47DAF0328D5
:102AB4003FF486AF04283FF48FAF05283FF498AF66
:102AC40006283FF4A1AF0728AAD00828B4D00928C3
:102AD400BED00A28C8D00B28D2D0DDE70020DDF80C
:102AE40000E001B0704700BF00C005400090054001
:102AF4000080054000B0054000D0054000A005401E
:101BD40081B0CDF800E0002440F240031BB240F293
:101BE400001212B21A4393B2002210B4FEF7F4FEAC
:0A1BF40001B0DDF800E001B0704719
:1009DC0082B0CDF800E05FFA81F8D5B29FB29DF8F5
:1009EC000830F54C00EA0404A1462046FFF716FC3B
:1009FC00F24CA54208D109F580666FEA0805EDB204
:100A0C0034682C40346008E0ED4CA54205D109F562
:100A1C0080652C6844EA08042C6040F2010407EA63
:100A2C000404A4B234B109F5A2652C6844EA0804A4
:100A3C002C6007E009F5A2666FEA0805EDB2346890
:100A4C002C40346040F2020407EA0404A4B234B12E
:100A5C0009F214552C6844EA08042C6007E009F2EA
:100A6C0014566FEA0805EDB234682C40346040F23D
:100A7C00080407EA0404A4B234B109F20C552C683A
:100A8C0044EA08042C6007E009F20C566FEA0805EA
:100A9C00EDB234682C40346040F2100407EA0404D0
:100AAC00A4B234B109F5A0652C6844EA08042C60A2
:100ABC0007E009F5A0666FEA0805EDB234682C4032
:100ACC00346040F2200407EA0404A4B234B109F201
:100ADC0004552C6844EA08042C6007E009F204561B
:100AEC006FEA0805EDB234682C40346040F24004E3
:100AFC0007EA0404A4B234B109F5A1652C6844EAF0
:100B0C0008042C6007E009F5A1666FEA0805EDB250
:100B1C0034682C40346041F2000407EA0404A4B2A7
:100B2C00012C13D042F2000407EA0404A4B2012CF5
:100B3C000CD044F2000407EA0404A4B2012C05D042
:100B4C00DEB24B46B8B25FFA88F53CE000200026D6
:100B5C00DAB2BBB207465FFA88F04946082E13D2C8
:100B6C0020FA06F4E4B204F00104E4B24CB17500CE
:100B7C002DB2032424B2AC4024B247EA04052F461C
:100B8C00FFE7761CF6B2E9E701F6C476FD4334685C
:100B9C002C40346001F23C56C543EDB234682C4015
:100BAC00346001F5A166C543EDB234682C40346065
:100BBC0001F20456C543EDB234682C403460C5B222
:100BCC0098B20B46D6B2002141F2000400EA0404AC
:100BDC00A4B23CB300220F46E9B2082A13D221FA80
:100BEC0002F4E4B204F00104E4B24CB155002DB2AD
:100BFC00012424B2AC4024B247EA04052F46FFE797
:100C0C00521CD2B2E9E703F6C4752C683C432C6045
:100C1C0003F5A1652C680C432C603D461F4683B23E
:100C2C00C8B203E01F4683B2E8B20D4642F200049C
:100C3C0003EA0404A4B26CB30022A8463946082A7D
:100C4C0013D220FA02F4E4B204F00104E4B24CB181
:100C5C0055002DB2032424B2AC4024B248EA04055A
:100C6C00A846FFE7521CD2B2E9E701F6C4752C681E
:100C7C0044EA08042C6001F23C552C6804432C60B7
:100C8C0001F5A1652C6804432C60F7B20E46C2B284
:100C9C0098B205E00197C2B298B2F7B2A846019E8D
:100CAC0044F2000400EA0404A4B284B30023D1B2D9
:100CBC00082B14D221FA03F4E4B204F00104E4B2D8
:100CCC0054B15D002DB2032424B2AC4024B248EAE6
:100CDC00040422469046FFE75B1CDBB2E8E706F60D
:100CEC00C4752C6844EA08042C6006F23C552C6848
:100CFC000C432C6006F5A1652C680C432C6006F2A5
:100D0C0004552C680C432C60FBB2324602E0D1B285
:100D1C003246FBB240F2800400EA0404A4B274B17F
:100D2C0040F2400400EA0404A4B22CB102F5A3651D
:100D3C002C680C432C6001E00120FAE006E002F57F
:100D4C00A366CD43EDB234682C40346040F20014FD
:100D5C0000EA0404A4B22CB102F21C552C680C431A
:100D6C002C6006E002F21C56CD43EDB234682C40E8
:100D7C00346040F2002400EA0404A4B2002C3AD0FF
:100D8C00104CA24240F2000500D001250E4CA242AC
:100D9C0040F2000400D0012425400C4CA24240F249
:100DAC00000400D001242540094CA24240F200046A
:100DBC0000D0012425400DE000F0FFFF00000000F2
:100DCC000100000000C0054000B005400090054047
:100DDC0000100640594CA24240F2000400D00124FD
:100DEC0005EA04040CB10120A3E002F5A5652C680A
:100DFC000C432C602AE0524CA24240F2000500D178
:100E0C000125504CA24240F2000400D1012425439C
:100E1C004D4CA24240F2000400D1012425434B4C1E
:100E2C00A24240F2000400D101242543434CA242CB
:100E3C0040F2000400D1012445EA040434B102F567
:100E4C00A566CD43EDB234682C40346040F6000406
:100E5C0000EA0404A4B22CB102F5A6652C680C437C
:100E6C002C6006E002F5A666CD43EDB234682C404A
:100E7C00346040F2004400EA0404A4B22CB102F540
:100E8C0084652C680C432C6006E002F58466CD4327
:100E9C00EDB234682C4034600BB9002049E00F2BC4
:100EAC0001D9012045E0002700208DF80430C3B2A1
:100EBC0010469DF80420082B12D221FA03F4E4B258
:100ECC0004F00104E4B244B19D002DB24FF00F04C4
:100EDC00AC4047EA04052F46FFE75B1CDBB2EAE7B0
:100EEC0000F22C56FD4334682C403460002600235D
:100EFC008DF80430CBB29DF80410082913D223FAD4
:100F0C0001F4E4B204F00104E4B24CB1D5B28C00AB
:100F1C0024B205FA04F446EA040425462E46FFE7FB
:100F2C00491CC9B2E9E700F22C552C6834432C60FB
:100F3C000020DDF800E002B0704700BF0050064012
:100F4C0000C0054000B00540009005400010064070
:1002280081B0664900EA010108467DE06449096831
:1002380041F0010262490A60BEE06149096841F083
:1002480002025F490A60B7E05D49096841F00402AB
:100258005B490A60B0E05A49096841F00802584908
:100268000A60A9E05649096841F0100254490A6039
:10027800A2E05349096841F0200251490A609BE015
:100288004F49096841F040024D490A6094E04C49E1
:10029800096841F080024A490A608DE048490968C6
:1002A80041F4807246490A6086E04549096841F48C
:1002B800007243490A607FE04149096841F480625D
:1002C8003F490A6078E03E49096841F400623C49C8
:1002D8000A6071E03A49096841F4805238490A6075
:1002E8006AE03749096841F4005235490A6063E019
:1002F8003349096841F4804231490A605CE0304979
:10030800096841F400422E490A6055E02C49096801
:1003180041F480322A490A604EE02949096841F4CB
:10032800003227490A6047E0264988423FF47EAFF9
:10033800254988423FF481AF244988423FF484AF7D
:10034800234988423FF487AF224988423FF48AAF65
:10035800214988423FF48DAF204988423FF490AF4D
:100368001F4988423FF493AF1E4988423FF496AF35
:100378001D4988423FF499AF1C4988423FF49CAF1D
:100388001B4988423FF49FAF1A4988423FF4A2AF05
:10039800194988423FF4A5AF184988423FF4A8AFED
:1003A800174988423FF4ABAF164988423FF4AEAFD5
:1003B800154988423FF4B1AF01B0704700F0FFFF24
:1003C80008E60F40008005400090054000A0054069
:1003D80000B0054000C0054000D0054000E00540E1
:1003E80000F00540000006400010064000200640CE
:1003F80000300640004006400050064000600640BD
:0C04080000700640008006400090064096
:101D700081B0CDF800E0002440F240031BB240F2F5
:101D8000001212B21A4393B2012210B4FEF726FEDB
:0A1D900001B0DDF800E001B070477B
:102B040081B0CDF800E091E0012904D120215A4898
:102B1400FFF75EF803E020215748FFF727F9A5E007
:102B2400012904D102215448FFF752F803E002219D
:102B34005148FFF71BF999E0012904D120214F489E
:102B4400FFF746F803E020214C48FFF70FF98DE02A
:102B5400012904D104214A48FFF73AF803E004218B
:102B64004748FFF703F981E0012904D110214448C3
:102B7400FFF72EF803E010214148FFF7F7F875E05E
:102B8400012904D120213E48FFF722F803E0202147
:102B94003B48FFF7EBF869E0012904D102213948E9
:102BA400FFF716F803E002213648FFF7DFF85DE08F
:102BB400012904D140213348FFF70AF803E04021FA
:102BC4003048FFF7D3F851E0012904D110212E48F1
:102BD400FEF7FEFF03E010212B48FFF7C7F845E09E
:102BE400012904D120212848FEF7F2FF03E0202127
:102BF4002548FFF7BBF839E0012904D104211F4817
:102C0400FEF7E6FF03E004211C48FFF7AFF82DE0D0
:102C1400012904D108211948FEF7DAFF03E008214D
:102C24001648FFF7A3F821E0012020E000283FF434
:102C34006BAF01283FF474AF02283FF47DAF032843
:102C44003FF486AF04283FF48FAF05283FF498AFD4
:102C540006283FF4A1AF0728AAD00828B4D0092831
:102C6400BED00A28C8D00B28D2D0DDE70020DDF87A
:102C740000E001B0704700BF00C00540009005406F
:0C2C84000080054000B0054000A00540A5
:102EA80081B0CDF800E009E00846FFF7EDFE0AE042
:102EB8000846FFF721FD06E0012004E00028F3D0D2
:0E2EC8000128F5D0F8E7DDF800E001B0704712
:102C900081B0CDF800E000F208010B68011D0A6860
:102CA0000168084691B29AB2034BFEF7A9FF0020D3
:0C2CB000DDF800E001B07047643C00005B
:101C00008AB0CDF800E008901846ADF824200DF118
:101C1000140B0BF10B0ADFF82CC101F0C5FBADF87A
:101C20000410FFF783FABDF8041001256DB2464C8D
:101C30002560464C206800256DB2454C2560454C1A
:101C40002160BDF82450444C2560444D444C25602F
:101C5000444D454C2560FFF7B3FA40F2E83400FBF1
:101C600004F5089CB5FBF4F4029429B9029C022CFB
:101C700001DA0224029404E0029C0C2C01DA0C2408
:101C80000294022424B2ADF81040BDF91040B4F122
:101C9000FF0F41DA002212B210B2B0F5807F30DAC5
:101CA000BDF91050441C24B26543029C641B03948C
:101CB000002C04DA039D4FF0FF346C43039410B9F9
:101CC000039C069404E0039D069CAC4200DA18E0F5
:101CD000039D059CAC4202DC039C04B107E0039C1D
:101CE0000594BDF910408DF81C408DF81D00059C31
:101CF0001CB901248DF81E4003E0441C22B210B22E
:101D0000CBE79DF81E40012C00D105E0BDF9104045
:101D1000A41CADF81040B8E79DF81C50134C25608A
:101D20009DF81D4025022DB20B4C246844EA0505A0
:101D3000094C256001256DB2054C2560DDF800E0F9
:101D40000AB07047AC3D000080C3FC431CE60F4066
:101D50008400104204800040008000401D05000007
:101D6000680400201114000030070020108000409B
:10112C0081B0CDF800E040F2000B82460AF1D80104
:10113C0009788B4539D20C210BFB01F10AEB01012B
:10114C008C460CF108010978A9B90CF10801097851
:10115C00CCB20CF1060109888BB20CF104010978B0
:10116C00CAB2DCF800100846D1B2002210B4FFF766
:10117C002FFC01B014E00CF108010978CCB20CF191
:10118C00060109888BB20CF104010978CAB2DCF8AB
:10119C0000100846D1B20F2210B4FFF719FC01B0B1
:1011AC000BF1010B5FFA8BFBC0E7DDF800E001B03F
:0211BC0070477A
:0C11C00001480068704700BF6404002074
:1029000081B0CDF800E000F208010B68011D0A68F3
:102910000168084691B29AB2034BFFF771F90020A3
:0C292000DDF800E001B07047643C0000EE
:1032E40081B0CDF800E011E00846FFF71DFB16E0C1
:1032F4000846FFF72BFB12E00846FFF7DDFC0EE063
:103304000846FFF7FDFC0AE0012008E00028EBD0A6
:103314000128EDD02028EFD03028F1D0F4E7DDF8F3
:0633240000E001B070475B
:10292C0081B0CDF800E0FEF79FFE044A04490A602E
:10293C000020DDF800E001B0704700BF91120000EC
:04294C006004002003
:1016740082B0CDF800E00346214A22490A60224A9A
:1016840022490A60224A23490A60234A23490A60FC
:1016940001932348FFF748FD019B012252B22149DF
:1016A4000A6000BF00BF00BFFEF786FFFFF786FD9C
:1016B40040F2E83100FB01F210461901914205D9CC
:1016C400012252B218490A605A0804E0002252B2B8
:1016D40015490A601A46C100B1FBF2F1491C4B08D6
:1016E4009A0912490A6003F03F0211490A60602214
:1016F40010490A60FEF772FFDDF800E002B070479F
:101704009112000034070020FFFFFFFF380700207C
:10171400FFFFFFFF3C070020FFFFFFFF4007002003
:10172400AC3A000014C3FC431406224224100140C6
:08173400281001402C100140B7
:1005BC0081B0002149B2044801600448016004483C
:1005CC00016001B0704700BF0006224220062242A3
:0405DC00240622428D
:1005E00081B0012149B20448016004480160044817
:1005F000016001B0704700BF00062242200622427F
:040600002406224268
:1029500081B0CDF800E0FEF729FE044A04490A6080
:102960000020DDF800E001B0704700BFAD120000AC
:0429700060040020DF
:1015AC0082B0CDF800E00346214A22490A60224A63
:1015BC0022490A60224A23490A60234A23490A60C5
:1015CC0001932348FFF7ACFD019B012252B2214944
:1015DC000A6000BF00BF00BFFEF7BAFFFFF7EAFDCD
:1015EC0040F2E83100FB01F210461901914205D995
:1015FC00012252B218490A605A0804E0002252B281
:10160C0015490A601A46C100B1FBF2F1491C4B089E
:10161C009A0912490A6003F03F0211490A606022DC
:10162C0010490A60FFF778F8DDF800E002B0704767
:10163C00AD12000034070020FFFFFFFF3807002029
:10164C00FFFFFFFF3C070020FFFFFFFF40070020CC
:10165C00D03900001CC3FC43140626422430014040
:08166C00283001402C30014040
:10055C0081B0002149B2044801600448016004489C
:10056C00016001B0704700BF0006264220062642FB
:04057C0024062642E9
:1007240081B0012149B204480160044801600448D1
:10073400016001B0704700BF000626422006264231
:04074400240626421F
:102CBC0081B0CDF800E0FEF73BFD044A04490A6000
:102CCC000020DDF800E001B0704700BF7114000077
:042CDC006004002070
:10173C0082B0CDF800E00346214A22490A60224AD1
:10174C0022490A60224A23490A60234A23490A6033
:10175C0001932348FFF7E4FC019B012252B221497B
:10176C000A6000BF00BF00BFFEF7E8FFFFF722FDD5
:10177C0040F2E83100FB01F210461901914205D903
:10178C00012252B218490A605A0804E0002252B2EF
:10179C0015490A601A46C100B1FBF2F1491C4B080D
:1017AC009A0912490A6003F03F0211490A6060224B
:1017BC0010490A60FEF7D4FFDDF800E002B0704774
:1017CC007114000034070020FFFFFFFF38070020D2
:1017DC00FFFFFFFF3C070020FFFFFFFF400700203B
:1017EC00883B000008C3FC4314061C4224E0004064
:0817FC0028E000402CE0004051
:1007480081B0002149B204480160044801600448AE
:10075800016001B0704700BF00061C4220061C4221
:0407680024061C4205
:10076C0081B0012149B20448016004480160044889
:10077C00016001B0704700BF00061C4220061C42FD
:04078C0024061C42E1
:102D040081B0CDF800E0FEF74FFC044A04490A60A4
:102D14000020DDF800E001B0704700BFAD120000F4
:042D24006004002027
:1034240081B0CDF800E018491848FFF79BFFFFF77B
:103434003DFFFFF7B1FE40F600010020FFF70CFF4F
:1034440047F600210220FFF707FF42F200010320A4
:10345400FFF702FF2F212F20FFF716FD0C48022152
:10346400FFF71EFEFFF760FF00B1FBE700210948EC
:10347400FFF7ACFE00B9F9E707480221FFF710FE99
:10348400DDF800E001B07047B83D0000403D0000A9
:0C349400000000201A0000201A02002096
:1033680081B0CDF800E003460846FFF73FFD184658
:10337800FFF75AFD0120034C2468A047DDF800E060
:0833880001B070474807002066
:0C2D280001490860704700BF907FB8426E
:0C2D340001490860704700BF807FB84272
:0C2CE00001490860704700BF807FB242CD
:0C2CEC0001490860704700BF887FB042BB
:0C2CF80001490860704700BF907FB042A7
:0C28F40001490860704700BF947FB042AB
:0C287C0001490860704700BF807FB64231
:0C28880001490860704700BF907FBA4211
:0C28940001490860704700BF987FB44203
:0C28580001490860704700BF9C7FB4423B
:0C28640001490860704700BF887FB24245
:0C28700001490860704700BF8C7FB24235
:0C28A00001490860704700BF947FB842F7
:0C28D00001490860704700BF847FB842D7
:0C28DC0001490860704700BF947FB242C1
:0C28E80001490860704700BF887FB042C3
:0C28AC0001490860704700BF907FB042F7
:0C28B80001490860704700BF947FB042E7
:0C28C40001490860704700BF847FB642E5
:0C2E740001490860704700BF987FB6421B
:0C2DE80001490860704700BF907FB442B2
:0C2E0C0001490860704700BF947FB44289
:0C2E240001490860704700BF887FB2427F
:0C2E180001490860704700BF8C7FB24287
:102DF400026803490A60011D0A6802490A607047B3
:082E04005407002058070020CC
:102E300000F230010A6808490A6000F208010A68D5
:102E400006490A60011D0A6805490A6000F21C0172
:102E50000A6804490A6070474407002048070020B8
:082E60004C0700205007002080
:1032B00081B0CDF800E00120074C2468A047012030
:1032C000064C2468A0470120054C2468A047DDF87F
:1032D00000E001B0704700BF500700204807002001
:0432E0004C07002077
:10319C0081B0CDF800E00020084C2468A047FEF771
:1031AC008DFF0120054C2468A047054C2468A047DE
:1031BC0000B9FAE7DDF800E001B070474C070020D9
:0431CC004407002094
:0C2E680001480068704700BF907FB8422E
:0C2E800001480068704700BF807FB84226
:0C2D700001480068704700BF807FB2423D
:0C2D7C0001480068704700BF887FB0422B
:0C2D880001480068704700BF907FB04217
:0C2D640001480068704700BF947FB04237
:0C2D400001480068704700BF807FB64269
:0C2D4C0001480068704700BF907FBA4249
:0C2D580001480068704700BF987FB4423B
:0C2DC40001480068704700BF9C7FB442CB
:0C2DD00001480068704700BF887FB242D5
:0C2DDC0001480068704700BF8C7FB242C5
:0C2DB80001480068704700BF947FB842DB
:0C2D940001480068704700BF847FB8420F
:0C2DA00001480068704700BF947FB242F9
:0C2DAC0001480068704700BF887FB042FB
:0C284C0001480068704700BF907FB04258
:0C20A00001480068704700BF947FB04208
:0C20940001480068704700BF847FB6421E
:0C20B80001480068704700BF987FB642E6
:0C20AC0001480068704700BF907FB442FC
:0C20880001480068704700BF947FB4421C
:0C207C0001480068704700BF887FB24236
:0C20700001480068704700BF8C7FB2423E
:1020C80040F6FE07C0F23D077F1EFDD100BF00BFEE
:0820D80000BF00BF00BF70470C
:10325C0082B0CDF800E001AC02222270621C10702A
:10326C00A31C0A0A1A70E31C01F0FF021A7000205A
:10327C000A4C2468A04701AA04211046FFF7BAF9AA
:10328C000120064C2468A047054C2468A04700B9CF
:10329C00FAE7DDF800E002B0704700BF48070020F5
:0432AC0044070020B3
:1026000083B0CDF800E08AB2014690B283B2421E98
:1026100090B26BB10A78D4B2ADF804000291A0B2C6
:10262000054C2468A0470299BDF80400491CEDE759
:0C263000DDF800E003B070475407002004
:1014100081B0CDF800E0FFF781F8DDF800E001B021
:02142000704713
:10051C0081B0054908600549096801B9FBE7024942
:10052C00086801B0704700BF088000408801104285
:1014400081B0CDF800E0FFF7A3F9DDF800E001B0CE
:021450007047E3
:1007900081B0054908600549096801B9FBE70249CC
:1007A000086801B0704700BF0890004088011242FD
:1013E80081B0CDF800E0FFF731FFDDF800E001B093
:0213F80070473C
:1012540081B0054908600549096801B9FBE70249FD
:10126400086801B0704700BF08A00040880114421C
:1013FC0081B0CDF800E0FFF79BF8DDF800E001B01C
:02140C00704727
:10053C0081B0054908600549096801B9FBE7024922
:10054C00086801B0704700BF08B00040880116422F
:1013CC0081B00449096801B1FBE70349086001B029
:0C13DC00704700BF1403184200C000401E
:1014540081B00449096801B1FBE70349086001B0A0
:0C146400704700BF14031A4200D0004083
:1014700081B00449096801B1FBE70349086001B084
:0C148000704700BF14031C4200E0004055
:1014240081B00449096801B1FBE70349086001B0D0
:0C143400704700BF14031E4200F000408F
:1013B00081B00449096801B1FBE70349086001B045
:0C13C000704700BF1403204200000140F1
:1012900081B00449096801B1FBE70349086001B066
:0C12A000704700BF140322420010014000
:1012740081B00449096801B1FBE70349086001B082
:0C128400704700BF14032442002001400A
:1012AC0081B00449096801B1FBE70349086001B04A
:0C12BC00704700BF1403264200300140C0
:102E8C0081B0CDF800E0020292B2521891B20B2040
:0C2E9C0000F0DEF9DDF800E001B0704746
:1030A40083B0CDF800E0024610460D228DF80820CA
:1030B4000A228DF809201FE0FFF794F823E0027834
:1030C4002AB10190FFF78EF80198401CF7E71AE047
:1030D40002782AB10190FFF785F80198401CF7E7C0
:1030E40002AA1046FFF77EF80DF109021046FFF719
:1030F40079F808E0062007E00029DDD00129DED0B8
:103104000229E5D0F6E70020DDF800E003B07047BF
:1021E80081B0CDF800E00178CCB2A0B2034C2468ED
:1021F800A0470020DDF800E001B07047600400202F
:10332C0082B0CDF800E000228DF80420FEF7D2FE2A
:10333C009DF80420511CC0B218B1322901D2CAB276
:10334C00F2E7322901D3FF2003E0FFF771F9FFF711
:0A335C0081F8DDF800E002B07047D0
:1020E00083B0CDF800E005213D48017048F2004082
:1020F000C4F205004FF001014FEAC10140F2401364
:102100000122C9B2FFF734F9FFF73EF900210A298D
:102110000AD2ADF80410FF20324C2468A047BDF865
:102120000410481C81B2F2E7FFF7CEF89522002197
:102130000020FFF7D3F8ADF80800FFF725F9BDF848
:102140000800012801D0012046E0FFF7BDF88722F2
:1021500040F2AA110820FFF7C1F8ADF80800FF20EF
:10216000204C2468A047FF201E4C2468A047FF2075
:102170001C4C2468A047FF201A4C2468A047FFF796
:1021800003F9BDF80800012807D00120FFF77EF908
:1021900010B10020FFF77AF902E00220FFF776F98C
:1021A0000F480078052801D1022015E00C4800787E
:1021B000042810D0FFF788F8FF2240F200211020F9
:1021C000FFF78CF8ADF80800FFF7DEF8BDF808005F
:1021D00008B1032000E00020DDF800E003B0704704
:0821E0005402002068040020F5
:1013700081B0CDF800E0002410B4FFF72FFB01B0DE
:08138000DDF800E001B0704748
:1013880081B0CDF800E0012149B205480160FF2095
:10139800044C2468A047DDF800E001B0704700BFA6
:0813A8008C7FB04268040020B4
:1012C80081B0002149B20248016001B0704700BFF7
:0412D8008C7FB04215
:1012DC0084B0CDF800E002918DF80C2000F24004AF
:1012EC00A0B21F4C2468A04702ABDB1C1B78DCB2FD
:1012FC00A0B21B4C2468A04702AB9B1C1B78DCB231
:10130C00A0B2174C2468A04702AB5B1C1B78DCB264
:10131C00A0B2134C2468A04702AB1B78DCB2A0B27D
:10132C000F4C2468A0479DF80C000D4C2468A04776
:10133C000021ADF80410FF20094C2468A047BDF82B
:10134C00041082B24B1C99B200F080039BB213B113
:10135C00642900D2EDE790B2DDF800E004B07047EC
:04136C0068040020F1
:10148C0084B0CDF800E08DF80C000021ADF804100C
:10149C00BDF8042042F210718A4280F077809DF8EA
:1014AC000C1099B9FFF70AFFFF2200210120FFF76A
:1014BC000FFFADF80600FFF761FFBDF8061021B96C
:1014CC00002235490A70002061E059E0FFF7F6FE72
:1014DC00FF2200213720FFF7FBFEADF80600FFF7D7
:1014EC004DFFBDF80610012949D1FFF7E7FEFF2299
:1014FC004FF080412920FFF7EBFEADF80600FFF717
:10150C003DFFBDF80610002938D19DF80C100229BA
:10151C002FD1FFF7D3FEFF2200213A20FFF7D8FE90
:10152C00ADF80600FF201D4C2468A047ADF808005C
:10153C00FF201A4C2468A047FF20184C2468A047B1
:10154C00FF20164C2468A047FFF718FFBDF80610C3
:10155C0071B9BDF8081001F0400189B219B104222B
:10156C000D490A7002E003220B490A7000200EE0BC
:10157C0004E0012208490A70002008E000E005E0C0
:10158C00BDF80410491CADF8041081E70120DDF80A
:10159C0000E004B0704700BF540200206804002033
:10263C0081B0CDF800E001212B48017040F200225E
:10264C0012B200212948FFF799FC0026022E0AD26B
:10265C00710127484018202212B20021FFF78EFC8E
:10266C00761CF6B2F2E7202212B200212148FFF7C5
:10267C0085FC0026042E0AD2F1001F4840180822BF
:10268C0012B20021FFF77AFC761CF6B2F2E71822A0
:10269C0012B200211948FFF771FC13491848016068
:1026AC0000211848017000211748016000211748CB
:1026BC000170002116480180002116480160FF219D
:1026CC0049B2154801700D2212B200211348FFF7D0
:1026DC0055FC002112480180002112480180DDF8D0
:1026EC0000E001B0704700BF88060020880400207D
:1026FC00C4060020A406002004070020700400205B
:10270C00900600208E0600206C0400208C06002011
:10271C00A2060020240700208D060020940600202D
:08272C00280700202A07002005
:101F880081B013B20246C8B211461DB22CB26B1E04
:101F98001DB214B10870491CF8E7104601B070472B
:1024600083B0CDF800E0012159480170594900209E
:10247000FFF742FD20B1102157480170FF20A2E074
:10248000544901F5FF700078552801D001209AE0E9
:1024900001F2FF100078AA2801D0012093E0002269
:1024A0000878E92802D10120C2B2FFE70878EB28BA
:1024B00005D1881C0078902803D1012000E0D0B21B
:1024C00000E0D0B2002848D0444A80201070111D8E
:1024D000002008600192FFF779FC019A002801DAD8
:1024E000012070E03E480088002830D03D48017847
:1024F0003D4800780843C0B248B13A48007803022A
:10250000394800781B18511C0420087004E0374833
:102510000368511C0620087035480068191A3548B0
:102520000088B1FBF0F10B4640F6F570814204D211
:10253000511C01200870012045E04FF6F5708342E0
:1025400004D9511C0B20087001203CE004E0511C10
:102550000B200870012036E034E0274C0023042BC8
:1025600016D2D9001D4841180A4620780870201D4F
:102570000446511C00780870211D0C46101D029065
:102580000846FFF763FD029908605B1C9BB2E6E713
:102590001A480078C10011484018401C00780428EF
:1025A0000AD016480078C1000C484018401C00783A
:1025B000062801D0012006E0FFF708FC002801DA18
:1025C000012000E00020DDF800E003B0704700BF0C
:1025D00088060020880400208C06002004070020C4
:1025E0007A0400209C0400209B040020A804002002
:1025F0008404002072040020460600208E0600207D
:101EF80085B0CDF800E003460291FFF7E1F91E4AEC
:101F08001278042A01D1184600E05802FF2201463F
:101F18001120FFF7DFF918B1FFF732FA012027E0A7
:101F2800FF20164C2468A047FE2800D0F8E70023BD
:101F380099B2B1F5007F10D2029A52180492ADF806
:101F48000410FF200D4C2468A047BDF80410049A23
:101F580010704A1C93B299B2EBE7FF20074C246833
:101F6800A047FF20054C2468A047FFF709FA002086
:101F7800DDF800E005B07047540200206804002036
:101DCC0081B0CDF800E00121314801703148007834
:101DDC00C10031484018001D0068304900F086F8F9
:101DEC0028B110212E480170FF2040B24CE02D4844
:101DFC00FEF720FC2C4908802C4801782C480180E7
:101E0C002C48FEF717FC2C4908802C4801782C48EC
:101E1C0001702C48FEF70EFC2B4908802B48FEF76E
:101E2C0009FC2B4B18801B480078C1001A4840183D
:101E3C00001D0168204800880A18264802601846D0
:101E4C0001881F480078484380B21418224B1C604C
:101E5C001D480088410189B2134A1088B1FBF0F08B
:101E6C0080B221181D4801601046008841081C48AA
:101E7C0001801046008841091A4801801846016803
:101E8C0019480160002040B2DDF800E001B0704755
:101E9C00880600208E0600200407002088040020FD
:101EAC008C06002093040020700400209504002070
:101EBC007204002096040020740400209804002072
:101ECC007604002099040020780400209E04002051
:101EDC007A0400207C04002080040020840400206C
:0C1EEC002C0700205A0200206C0400208B
:1006400081B0411C09780A0292B20178511888B22F
:0406500001B070473E
:10204C0081B0C11C09780A02811C097851180A0256
:10205C00411C097851180A0201785118084601B040
:02206C007047BB
:1031D00084B0CDF800E0CCB201461D4A92F900203F
:1031E0008DF80C201B4A12788DF80D208DF80440C4
:1031F0000291E2B208460721FFF706F802999DF80E
:10320000044043B200281DDA6FF00102934217D147
:103210009DF80D300F4A13709DF90C2053010E4A92
:10322000D21802F21C0300221A80E2B208460721DB
:10323000FEF7EAFF002801DA002004E0022002E0A5
:10324000002000E00120DDF800E004B0704700BF7E
:0C3250008D0600208C060020C406002023
:102208009BB0CDF800E007468DF864108DF8682083
:102218003846FFF7C5FE28B11224874B1C70FF20F3
:1022280040B204E139468548FFF7B4FD844B1B886A
:10223800BBB1844B93F900305C01834B1B194FF001
:1022480020061D46814C23782B70761E641C6D1C5D
:10225800002EF8D100247A4B1C80FF2464B2794BFD
:102268001C7014AB0D2212B274491846FFF7C6FA57
:1022780009AB19467148FFF7D3FA00284CDA9DF8E4
:102288006840C4F3C013002B40D040F20003ADF8FF
:102298005E304FF0000318939DF8683003F0580340
:1022A800DBB22BB10824644B1C70FF2040B2BEE0A7
:1022B80001AB202212B200211846FFF761FE9DF8FB
:1022C800683003F07F038DF80F3001AB0B2212B298
:1022D8005A491846FFF792FA0DF15E0518AC01ABA2
:1022E8002A4621461846FFF72FFB002802DAFF206E
:1022F80040B29CE009AC14AB21461846FFF790FAAF
:10230800002802DAFF2040B291E005E00D244A4B94
:102318001C70FF2040B28AE09DF8313003F058036A
:10232800DBB22BB10824444B1C70FF2040B27EE086
:102338000020022825D24401434B1B1919461C339F
:102348001B88D3B18B1D1C88BDF84430A34214D11F
:1023580001F21C049DF8643023804FF020063B4DA9
:102368000C46FFE723782B70761E641C6D1C002E2C
:10237800F8D1344B187040B259E0431C99B288B276
:10238800D7E70027022F4DD27C012F4B1B191C3396
:102398001B88002B42D17C012B4B1B19984620220D
:1023A80012B200211846FFF7EBFD08F1060508F107
:1023B8000C04BDF84430238023882B8008F11C04CA
:1023C8009DF864302380129BC8F8003008F104049B
:1023D800BDF84C305B01238008F11804109B236082
:1023E80008F1100508F10C031B889C1E184B1B886C
:1023F8005C43184B1B681B192B604FF02006134DCC
:102408004446B8B2FFE723782B70761E641C6D1C17
:10241800002EF8D10B4B187040B208E07B1C98B224
:1024280087B2AFE70924044B1C70FE2040B2DDF8E8
:1024380000E01BB0704700BF8C0600209406002007
:10244800C00600208D060020C4060020A406002037
:0824580072040020840400203E
:101FA80081B0CDF800E004462046FEF737FBC2B208
:101FB800C1B211B9FF2040B240E00C2A02D9FE207C
:101FC80040B23BE021782E2902D1FD2040B235E015
:101FD800002676B22546D3B2D0B22246002B12D9BB
:101FE800D11809782E290BD1012464B2082B02D903
:101FF800FC2040B222E0591C09B2521863B204E036
:102008005B1EDBB2EAE72A4673B2012B04D008282C
:1020180002D9FB2040B211E0012B0DD11046FEF78A
:10202800FDFAC2B2C1B211B9F52040B206E0032AE6
:1020380002D9F42040B201E0002040B2DDF800E00F
:0420480001B070472C
:1006240081B0014608460B460246401C117801B1D0
:0C063400FAE7C11A491E08B201B0704775
:101D9C0082B0CDF800E0002504460B460D2D0BD289
:101DAC00621901925A191278D0B2FEF725FC019AE9
:101DBC0010706D1CEDB2F1E7DDF800E002B0704779
:1006040081B07A2808D8612807D34FF6DF7109B280
:0E06140000EA0101C8B2FFE7FFE701B070473E
:1018040081B00B46014618460D4614B2531E1AB257
:1018140024B103782B706D1C401CF6E7084601B018
:0218240070470B
:1018280086B0CDF800E003900491039A12B9FF2026
:1018380040B272E00398FEF709FF3A4A13683A4A41
:1018480012689A4204D1394A1288ADF8062006E097
:10185800374A1388374A12885A43ADF80620324A65
:1018680012680592344A02920598FEF785FE012314
:10187800324A13703048FFF7A5FC0022ADF8042067
:10188800BDF80630BDF804209A423BD20B2212B2B2
:1018980003990298FFF7C0FCF0B9FFF751F828B197
:1018A8001023274A1370FF2040B236E0049A82B111
:1018B80004990298FEF778FF049A02F22403059A25
:1018C8001A60049A02F22804029B1B4A9A1A5209C7
:1018D8002280002040B220E0029A02F22003029304
:1018E800184A1268934207D1059A521C0592124A67
:1018F80002921148FFF766FCBDF80420521CADF8AF
:101908000420BDE7FFF71CF828B110230C4A137018
:10191800FF2040B201E0FF2040B2DDF800E006B051
:10192800704700BF800400206C0400207804002069
:101938005A02002072040020880400208806002033
:081948008C060020900600202F
:1006540087B0CDF800E004A90D4604460194029544
:1006640003900B2212B20846202101F08BFC039860
:10067400029D019C0646317831B13178C8B2FFF74A
:10068400C7FE08B1761CF6E723493046FFF7CEFED5
:1006940038B904AA2E211170521C2E211170204643
:1006A40030E01E493046FFF7C1FE20B904AA2E21CE
:1006B4001170204626E022462C463346197871B143
:1006C4001978C8B2FFF7A4FE48B919782E2906D0C4
:1006D40019782170611C08465B1C0446EEE7197802
:1006E4002E2901D1581C00E0184604AB08330190B0
:1006F4001046019A1178202904D9117819705B1CCD
:10070400521CF7E704A90B2212B201F079F8DDF8C4
:1007140000E007B0704700BF5502002058020020D7
:1004140081B0202806D00D2802D8092800D301E095
:0C042400002100E00121C8B201B07047C7
:1004300081B00091014600980A7832B10B780278B9
:10044000934202D1491C401CF6E70B7802789A1AB5
:0604500010B201B070477C
:1005800081B0CDF800E0024600F09EFE0A490978ED
:10059000042901D1104600E05002FF22014612203A
:1005A00000F09CFE18B100F0EFFE012000E00020FA
:0C05B000DDF800E001B0704754020020AC
:1011CC0085B0CDF800E00290FFF718F800239AB232
:1011DC00B2F5007F10D2029989180491ADF8042061
:1011EC00FF200B4C2468A047BDF80420049908701C
:1011FC00511C8BB29AB2EBE7FF20054C2468A04738
:10120C00FF20034C2468A047DDF800E005B07047D0
:04121C006804002042
:1002080081B0CDF800E0FF20044C2468A047FE2808
:1002180000D0F8E7DDF800E001B07047680400207E
:1012200081B0ADF800200246BDF9000004B2431EB3
:1012300018B25CB114780B789C4204D014780B7807
:10124000E31A18B204E0521C491CEFE7002000B278
:0412500001B0704732
:1009480082B0CDF800E040F24C00214C2468A0476A
:1009580000201F4C2468A04700201D4C2468A04795
:1009680000201B4C2468A0470020194C2468A0478D
:10097800FF20174C2468A0470022ADF80420FF2070
:10098800134C2468A047BDF8042083B2511C8AB2D6
:1009980000F0800080B210B1642A00D2EDE703F0C5
:1009A800800080B238B1ADF8043000F0E9FCBDF841
:1009B800043098B208E0FF20054C2468A0470028BE
:1009C800F9D000F0DDFC0020DDF800E002B070474F
:0409D800680400208F
:1007B00082B0CDF800E00246084615460446002106
:1007C000134608290AD22A78202A00D106E02A787E
:1007D0002270641C6D1C491C89B2F2E703F2080206
:1007E00011461278202A16D02E222270661C002272
:1007F00005460C4691B203290AD22278202A00D15C
:1008000006E022783270761C641C491C89B2F2E73B
:1008100030461E4602E01E46054620460022027073
:1008200005F20D0306F20B0212781A7005F21C0293
:10083000019206F21C02104601F008FC019A1060B9
:1008400005F22002019206F21A021046FFF7F8FEA6
:10085000019A108006F20E021378521C12781202CE
:1008600092B29C18A4B2A0B205F20E02D31CE20A06
:100870001A7005F20E02131D420992B202F03F02F5
:100880001A7005F20E02531D00F01F0292B25200C0
:100890001A7006F210021378521C1278120292B2E9
:1008A0009C18A4B2A0B205F20E02931C04F01F0221
:1008B0001A7005F20E02531C420992B202F00F02A6
:1008C0001A7005F20E03420A1A7006F21602137825
:1008D000521C1278120292B29C18A4B2A0B205F275
:1008E0001402D31CE20A1A7005F21402131D420905
:1008F00092B202F03F021A7005F21402531D00F08A
:100900001F0292B252001A7006F218021378521C9B
:100910001278120292B29C18A4B2A0B205F214028C
:10092000931C04F01F021A7005F21402531C4209B2
:1009300092B202F00F021A7005F21403420A1A7002
:08094000DDF800E002B0704791
:1019500087B0CDF800E0049005910692049B1A33FD
:101960001846FEF76DFE069B1880069B1B88B3B9D0
:10197000FFF76AFB069B1880069B1C884FF6FF73D7
:101980009C4205D10424674B1C70FF2040B2C5E087
:10199000069B1B884FF6FF7198B2FFF7DFFA069B94
:1019A0001B889C1E604B1B885C43604B1B681C198A
:1019B000059B1C605E4B1C685E4B1B68A34204D1F8
:1019C0005D4B1B88ADF80A3006E05C4B1C88564B1B
:1019D0001B886343ADF80A30564B1B680393584885
:1019E00001900398FEF7CCFD0124564B1C7054481F
:1019F000FFF7ECFB01980023ADF808300146BDF875
:101A00000A40BDF80830A34280F07A800B78E52BBD
:101A100003D00B78202B00D35AE00191FEF794FFFE
:101A2000019928B110243F4B1C70FF2040B275E093
:101A30000191202212B208460499FFF7E3FE0199B2
:101A400001F21A04069B1B8803F0FF03237001F2C6
:101A50001A035C1C069B1B881B0A237001F20E04F0
:101A6000394B1B78237001F20E035C1C374E337820
:101A7000237001F21004364B1B78237001F210031F
:101A80005C1C344D2B78237001F216042E4B1B780E
:101A9000237001F216035C1C33461B78237001F29D
:101AA00018042B4B1B78237001F218035C1C2B4687
:101AB0001B78237022490398FEF7CEFC28B1052439
:101AC000184B1C70FF2040B228E0002040B225E0F7
:101AD00001F220042746204B1B689C4209D1039B3E
:101AE0005B1C0393164F01971548FFF76FFB019F8F
:101AF000FFE7BDF808305B1CADF8083039467EE7DB
:101B0000FEF722FF28B11024064B1C70FF2040B2C4
:101B100004E00624034B1C70FF2040B2DDF800E017
:101B200007B070478C060020720400208404002057
:101B3000800400206C040020780400205A02002059
:101B4000880400208806002028070020290700209C
:0C1B50002A0700202B0700209006002030
:1010480083B0CDF800E0304A118830480088484322
:10105800ADF804000220ADF806001046018840F201
:101068000200B0FBF1F080B281B2294800680B1889
:101078001046028840F20201B1FBF2F002FB1010A8
:1010880080B2410089B22348401802901846FFF701
:1010980073FA0121204801701E4800F093F8BDF84A
:1010A8000410BDF80600884215D20298008800B9DD
:1010B80011E00298811C0291BDF80600401CADF8B1
:1010C800060016480068814204D11248029011486F
:1010D80000F078F8E3E7FFF733FC28B11021104857
:1010E80001704FF6FF700AE0BDF80410BDF8060065
:1010F800884202D14FF6FF7001E0BDF80600DDF826
:1011080000E003B0704700BF2C0700207A040020DD
:101118007C04002088040020880600209006002017
:041128008C06002011
:100F5C0085B0CDF800E0ADF8101081B2304A12889F
:100F6C00B1FBF2F292B203922E4A1368039AD41890
:100F7C00039401232C4A1370ADF804102B4920461E
:100F8C0000F0B4FFBDF8041028B11023284A1370E8
:100F9C004FF6FF7040E0224A1388B1FBF3F203FBDB
:100FAC00121292B253009BB298B2204AD31804ACDE
:100FBC0022781A70431C9BB21C4AD318621C1278FC
:100FCC001A701A490398FFF741FA28B10523184AF9
:100FDC0013704FF6FF701FE00122ADF80820154A80
:100FEC001378BDF808209A4215D2134A1388039A35
:100FFC00D21803920D491046FFF728FA28B10523A1
:10100C000B4A13704FF6FF7006E0BDF80820521C17
:10101C00ADF80820E3E70020DDF800E005B07047EC
:10102C002C0700207C040020880600208804002067
:0C103C008C060020760400207A040020BE
:1004580083B0CDF800E00346029100F031FF2B4A4B
:100468001278042A01D1184600E05802FF220146FA
:10047800182000F02FFF18B100F082FF012040E0A3
:10048800FF20234C2468A047FF20214C2468A04764
:10049800FE201F4C2468A047002040F2FF12904223
:1004A8000FD8029A12181278D4B2ADF80400A0B28C
:1004B800174C2468A047BDF80400421C91B288B2CA
:1004C800EBE7FF20124C2468A047FF20104C24685B
:1004D800A047FF200E4C2468A04700F01F0292B2EC
:1004E800052A03D000F04CFF02200AE0FF20084C48
:1004F8002468A047B0F1FF0F00D0F7E700F040FFF5
:100508000020DDF800E003B0704700BF540200206F
:040518006804002053
:1034DC0081B0CDF800E03848FFF738FE37480221BC
:1034EC00FFF7DAFD34480068B0F5007F2ED90021D3
:1034FC003348018032480088B0F5007F0AD230484A
:10350C00018830484018FFF7E1FC2D490888401C21
:10351C000880EFE700212A480180294800881028FC
:10352C000ED227480088410189B226484018FFF77F
:10353C006DFD00B1F5E722490888401C0880ECE7D6
:10354C001D490868A0F500700860CBE700211C48F5
:10355C000180194801681A48008888420AD2184824
:10356C00018818484018FFF7B1FC15490888401C21
:10357C000880EEE70021124801800F4801681048CE
:10358C00008888420DD20E4801880E484018C0B2FF
:10359C00FFF75CFD00B1F6E709490888401C08807C
:1035AC00EBE709480221FFF777FDFEF787FDDDF811
:1035BC0000E001B0704700BF5C0200203302002025
:0C35CC00440200206002002046020020A3
:1031580082B0CDF800E00C49098801F0010189B27C
:1031680029B900210160072208490A7007E0019087
:103178000020FFF7DBFA0198054909680160DDF8CE
:1031880000E002B0704700BFC00600208C06002097
:04319800BC06002051
:1027340082B0CDF800E03749098829B90722364923
:102744000A704FF0FF3061E0012234490A703449C5
:102754000968884204D932490A6832490A6001E0AA
:102764003049086030490A882E490968B1FBF2F201
:102774002E490988B2FBF1F188B22D490A882D4906
:102784000A8082B2002A1AD92A490988ADF804209D
:1027940088B2FFF7E1F9BDF80420264908804FF616
:1027A400FF71884208D11E490A681E490A600A223C
:1027B40019490A70002029E0521E92B2E2E71A4E2B
:1027C4003288184D2968B1FBF2F2184C2188B2FB0B
:1027D400F1F301FB132318490B80164909888A1E5B
:1027E400214609884A43154909688A1899B252183A
:1027F40013490A6031460B8829460968B1FBF3F294
:1028040003FB12120F490A8029460868DDF800E02C
:1028140002B07047C00600208C0600208806002005
:10282400BC060020AC0600207004002072040020C6
:10283400AA060020B0060020B80600208404002068
:08284400B4060020BA060020D2
:101B5C0082B0CDF800E084B216490988B4FBF1F1EB
:101B6C0089B288B2144909684318012213490A70D2
:101B7C00ADF804401249184600F0B8F9BDF804401D
:101B8C0028B110220F490A704FF6FF700DE0094979
:101B9C000A88B4FBF2F102FB114189B24A0092B2FD
:101BAC00074989180846FEF745FDDDF800E002B04C
:101BBC00704700BF2C0700207C0400208806002002
:081BCC00880400208C060020B3
:102ED80082B0CDF800E004464149098801F00101BB
:102EE80089B219B907223F490A7075E03E490A6854
:102EF8003E490968914203D30B223A490A706BE0B4
:102F08003B490988B1F5007F40F0458000223849E7
:102F18000A80384B19884A1C92B21A8036490988A7
:102F28008A4223D1002233490A803449098801940E
:102F380088B2FEF70FFE019C304908804FF6FF71FA
:102F4800884207D128490A6828490A600A2225497F
:102F58000A7041E0294909888A1E274909884A4395
:102F6800274909688A1827490A6003E0254A116831
:102F7800491C1160002224490A70224909680194F9
:102F880008462249FEF7B4FF019C18B110221549E2
:102F98000A7021E012E01C49097879B100221A4927
:102FA8000A7018490968019408461849FEF7A0FFF5
:102FB800019C18B110220B490A700DE00C4B1A88BD
:102FC800124989180978217019460988491C1980FD
:102FD800064A1168491C1160DDF800E002B070472C
:102FE800C00600208C060020BC060020AC0600208D
:102FF800BA060020B806002072040020B00600209F
:1030080084040020B40600208806002088040020DC
:1030180082B0CDF800E001900B4C2468A04708B9B5
:1030280001200CE00020094C2468A04720210198C9
:10303800FFF7E2FA0120054C2468A0470020DDF8DC
:1030480000E002B0704700BF44070020500700208E
:1030580083B0CDF800E0C1B20E4C24688DF804109E
:10306800A0479DF8041008B901200FE08DF808105A
:103078000020094C2468A04702A908460121FFF74F
:10308800BBFA0120044C2468A0470020DDF800E0CA
:0C30980003B070474407002050070020E0
:1036440081B0CDF800E0344A344B354C354D364E1C
:103654004FF03011354801600021354801606FF0AA
:10366400010003EA000133480160C3F3C00018B944
:10367400FFF78CFEFFF78AFEC3F3000018B10121A7
:1036840049B22D4801602D48864203D92C49274868
:10369400016021E02B48864203D92B49234801606D
:1036A4001AE04CF25030864203D928491F48016081
:1036B40012E047F23050864203D925491B48016085
:1036C4000AE0B6F57A5F03D922491848016003E09D
:1036D4004FF03011154801601F4804601F48056011
:1036E4006FF0805002EA000111480160012149B2E3
:1036F4001B4801601B48016002F0805038B11A4831
:10370400006800B9FBE7012149B218480160DDF8FF
:1037140000E001B0704700BF040030331100000026
:103724001800800000000000C0D40100C0E00F4079
:10373400B0E00F407CE00F40800FFC43A086010006
:10374400960130008038010055013000D30030006C
:10375400B20030007100300060E10F4064E10F40BE
:103764007C16FC437816FC43002DFC437016FC4386
:1033900041F67E27C0F206077F1EFDD100BF00BFA9
:0833A00000BF00BF00BF704731
:10360C0081B002490248016001B07047C0D401008A
:04361C006404002022
:0836040081B0FEE701B0704740
:1035D80081B04EF68850CEF20000016841F47001C7
:1035E800016000BF00BF00BF00BFF1EE100A40F449
:0A35F8004000E1EE100A01B0704738
:103DC00000B5DFF814B0DFF814A0DFF814C0FFF777
:103DD000EBFA00BD704700BF000000205A0200202F
:043DE0007437000034
:103E400000B5DFF810B0DFF810A0FFF729FB00BDC8
:0C3E5000704700BF000000205C0700204D
:10377400202D2D2D204D6D6320284641542920698C
:0A3784006E697420737461727400A2
:10378E00736F756E642E6D703300000000000000C4
:10379E00000000000000000000000000000000001B
:1037AE00000000000000000000000000000000000B
:1037BE0000000000000000000000000000000000FB
:1037CE0000000000000000000000000000000000EB
:1037DE0000000000000000000000000000000000DB
:1037EE0000000000000000000000000000000000CB
:1037FE0000000000000000000000000000000000BB
:10380E0000000000000000000000000000000000AA
:10381E00000000000000000000000000000000009A
:10382E00000000000000000000000000000000008A
:10383E00000000000000000000000000000000007A
:10384E00000000000000000000000000000000006A
:10385E00000000000000000000000000000000005A
:10386E00000000000000000000000000000000004A
:10387E00000000000000000000000000000000003A
:10388E00000000000000000000000000000000002A
:10389E00000000000000000000000000000000001A
:1038AE00000000000000000000000000000000000A
:1038BE0000000000000000000000000000000000FA
:1038CE0000000000000000000000000000000000EA
:1038DE0000000000000000000000000000000000DA
:1038EE0000000000000000000000000000000000CA
:1038FE0000000000000000000000000000000000BA
:10390E0000000000000000000000000000000000A9
:10391E000000000000000000000000000000000099
:10392E000000000000000000000000000000000089
:10393E000000000000000000000000000000000079
:10394E000000000000000000000000000000000069
:10395E000000000000000000000000000000000059
:10396E000000000000000000000000000000000049
:10397E000000000000000000000000000000000039
:10398E00202D2D2D204D6D63202846415429206970
:10399E006E697420646F6E6500202D2D2D20506C85
:0A39AE00617920617564696F2E00D5
:0239B80000000D
:0E39BA00202D2D2D2046696E69736821200096
:0439C800002E2E009F
:0239CC002E00CB
:1039D00000A00540100040050100000000A00540C7
:1039E0002000400501000000000000000000000071
:1039F00000000000000000000000000000000000C7
:103A000000000000000000000000000000000000B6
:103A100000000000000000000000000000000000A6
:103A20000000000000000000000000000000000096
:103A30000000000000000000000000000000000086
:103A40000000000000000000000000000000000076
:103A50000000000000000000000000000000000066
:103A60000000000000000000000000000000000056
:103A70000000000000000000000000000000000046
:103A80000000000000000000000000000000000036
:103A90000000000000000000000000000000000026
:0C3AA00000000000000000000200000018
:103AAC0000F00540400040050100000000F005401A
:103ABC008000400501000000000000000000000034
:103ACC0000000000000000000000000000000000EA
:103ADC0000000000000000000000000000000000DA
:103AEC0000000000000000000000000000000000CA
:103AFC0000000000000000000000000000000000BA
:103B0C0000000000000000000000000000000000A9
:103B1C000000000000000000000000000000000099
:103B2C000000000000000000000000000000000089
:103B3C000000000000000000000000000000000079
:103B4C000000000000000000000000000000000069
:103B5C000000000000000000000000000000000059
:103B6C000000000000000000000000000000000049
:0C3B7C000000000000000000020000003B
:103B880000B00540100040050100000000B00540ED
:103B980020004005010000000000000000000000B7
:103BA800000000000000000000000000000000000D
:103BB80000000000000000000000000000000000FD
:103BC80000000000000000000000000000000000ED
:103BD80000000000000000000000000000000000DD
:103BE80000000000000000000000000000000000CD
:103BF80000000000000000000000000000000000BD
:103C080000000000000000000000000000000000AC
:103C1800000000000000000000000000000000009C
:103C2800000000000000000000000000000000008C
:103C3800000000000000000000000000000000007C
:103C4800000000000000000000000000000000006C
:0C3C58000000000000000000020000005E
:103C640000800540040040050F000000008005406E
:103C7400100040050F0000000080054020004005B2
:103C84000F00000000000000000000000000000021
:103C94000000000000000000000000000000000020
:103CA4000000000000000000000000000000000010
:103CB4000000000000000000000000000000000000
:103CC40000000000000000000000000000000000F0
:103CD40000000000000000000000000000000000E0
:103CE40000000000000000000000000000000000D0
:103CF40000000000000000000000000000000000C0
:103D040000000000000000000000000000000000AF
:103D1400000000000000000000000000000000009F
:103D2400000000000000000000000000000000008F
:0C3D340000000000000000000300000080
:103D4000292D0000352D0000E12C0000ED2C000095
:103D5000F92C0000F52800007D28000089280000CB
:103D600095280000592800006528000071280000EF
:103D7000692E0000812E0000712D00007D2D0000B5
:103D8000892D0000652D0000412D00004D2D000003
:103D9000592D0000C52D0000D12D0000DD2D0000A3
:0C3DA00040420F0000000000C7000000BF
:043DAC00FFFFFF7F97
:043DB000000000000F
:023DB40002000B
:013DB600000C
:083DB800111400001D050000BC
:00000001FF
