:10000000FCFF0220855900003D5900003D590000C9
:100010003D5900003D5900003D5900003D59000088
:100020003D5900003D5900003D5900003D59000078
:100030003D5900003D5900003D5900003D59000068
:100040003D5900003D5900003D5900003D59000058
:100050003D5900003D5900003D5900003D59000048
:100060003D5900003D5900003D5900003D59000038
:100070003D5900003D5900003D5900003D59000028
:100080003D5900003D5900003D5900003D59000018
:100090003D5900003D5900003D5900003D59000008
:1000A0003D5900003D5900003D5900003D590000F8
:1000B0003D5900003D5900003D5900003D590000E8
:1000C0003D5900003D5900003D5900003D590000D8
:1000D0003D5900003D5900003D5900003D590000C8
:1000E0003D5900003D5900003D5900003D590000B8
:1000F0003D5900003D5900003D5900003D590000A8
:100100003D5900003D5900003D5900003D59000097
:100110003D5900003D5900003D5900003D59000087
:100120003D5900003D5900003D5900003D59000077
:100130003D5900003D5900003D5900003D59000067
:100140003D5900003D5900003D5900003D59000057
:100150003D5900003D5900003D5900003D59000047
:100160003D5900003D5900003D5900003D59000037
:100170003D5900003D5900003D5900003D59000027
:100180003D5900003D5900003D5900003D59000017
:080190003D5900003D5900003B
:1059840000F010F8FFF7DCFF00F0AAFDFFF7EEFFD0
:1059940000F058FDFFF716FFFFF7D2FEFFF744FFB4
:0459A400FCE7FEE737
:1059280081B01CF8019B0BF8019BBBEB0A0FF8D167
:0459380001B0704703
:1057080081B04FF000094FF0000CBDEB0A0F04DC2C
:10571800BDEB0B0F01DBD446EA464BF8049BBBEB11
:105728000A0FFAD1BCEB0A0F05DDE246D9F800B042
:0A5738000BF1040BF1E701B070471C
:1057C80081B0CDF800E0012200210020FFF7D2FCD3
:1057D800002201210020FFF7CDFC00220221002039
:1057E800FFF7C8FC002207210020FFF7C3FC0C4884
:1057F80001460020FFF766FF42F280510120FFF7C3
:1058080091FE40F6FE07C0F23D0700BF00BF7F1EB5
:10581800FDD100BF00BF00BFDDF800E001B0704758
:0458280038640000E0
:10517C0081B0CDF800E05FFA81F85FFA82F916E0B1
:10518C005FFA89F15FFA88F0FFF7ACFA16E05FFA84
:10519C0089F15FFA88F0FFF715FC0FE05FFA89F1EF
:1051AC005FFA88F0FFF704FD08E0012006E0002814
:1051BC00E6D00128EBD00228F0D0F6E7DDF800E0CD
:0451CC0001B0704777
:1046F00081B0CDF800E0A9E0012905D14FF0040117
:104700006548FFF779FC04E04FF004016348FFF7C8
:104710007FFCBBE0012905D14FF400615E48FFF743
:104720006BFC04E04FF400615C48FFF771FCADE006
:10473000012905D14FF010015948FFF75DFC04E055
:104740004FF010015748FFF763FC9FE0012905D1A6
:104750004FF020015248FFF74FFC04E04FF02001DA
:104760005048FFF755FC91E0012905D14FF0800139
:104770004B48FFF741FC04E04FF080014948FFF748
:1047800047FC83E0012905D14FF040014448FFF781
:1047900033FC04E04FF040014248FFF739FC75E07C
:1047A000012905D14FF480613F48FFF725FC04E063
:1047B0004FF480613D48FFF72BFC67E0012905D1EC
:1047C0004FF400513448FFF717FC04E04FF4005158
:1047D0003248FFF71DFC59E0012905D14FF00401D3
:1047E0003348FFF709FC04E04FF004013148FFF7BC
:1047F0000FFC4BE0012905D14FF008012C48FFF7D1
:10480000FBFB04E04FF008012A48FFF701FC3DE004
:10481000012905D14FF480712548FFF7EDFB04E035
:104820004FF480712348FFF7F3FB2FE0012905D1F6
:104830004FF400711E48FFF7DFFB04E04FF40071F6
:104840001C48FFF7E5FB21E0012020E000283FF4B1
:1048500053AF01283FF45EAF02283FF469AF03284D
:104860003FF474AF04283FF47FAF05283FF48AAFCC
:1048700006283FF495AF0728A0D00828ACD0092817
:10488000B8D00A28C4D00B28D0D0DDE70020DDF84E
:1048900000E001B0704700BF50F00F4040F00F4003
:1048A00090F00F4080F00F4010F00F4000F00F40EC
:0848B000D0F00F40C0F00F40F2
:103FF80081B0CDF800E0034AFEF7D8F8DDF800E01C
:0840080001B070470401020041
:1021B40081B0CDF800E0FFF71FFDDDF800E001B0CD
:0221C400704762
:101BFC0083B0CDF800E006460C4615463046FFF79C
:101C0C0009F840F2FF1306EA030080090026224679
:101C1C002946202E39D24FF0010303FA06F402EACA
:101C2C0004031F46A3422ED104031A4B1C19B30004
:101C3C00E51801952C68184B04EA03032B60174B2D
:101C4C0001EA0304019B1B6843EA0404019B1C602A
:101C5C0001F48033B3F5803F15D08401104B1B1970
:101C6C001433029301F400333BB1FC43029B1B6819
:101C7C0003EA0404029B1C6005E0029B1B6843EA18
:101C8C000704029B1C60761CC3E7DDF800E003B080
:101C9C00704700BF009004400000FFFFFFFF0000F2
:041CAC0000F00F40F5
:100C200081B040F2FF1100EA01018909084600F293
:100C300009024FF0010101FA02F20449096841EA90
:100C4000020202490A6001B0704700BF38800440C8
:1040100081B0CDF800E0034AFEF7CCF8DDF800E00F
:0840200001B070470401040027
:1049D00081B0CDF800E0A9E0012905D14FF0080130
:1049E0006548FFF709FB04E04FF008016348FFF753
:1049F0000FFBBBE0012905D14FF400215E48FFF712
:104A0000FBFA04E04FF400215C48FFF701FBADE046
:104A1000012905D14FF008015948FFF7EDFA04E0EC
:104A20004FF008015748FFF7F3FA9FE0012905D13D
:104A30004FF020015248FFF7DFFA04E04FF0200169
:104A40005048FFF7E5FA91E0012905D14FF08001C8
:104A50004B48FFF7D1FA04E04FF080014948FFF7D7
:104A6000D7FA83E0012905D14FF040014448FFF710
:104A7000C3FA04E04FF040014248FFF7C9FA75E07D
:104A8000012905D14FF400613F48FFF7B5FA04E072
:104A90004FF400613D48FFF7BBFA67E0012905D1FB
:104AA0004FF480713448FFF7A7FA04E04FF48071A7
:104AB0003248FFF7ADFA59E0012905D14FF48031B2
:104AC0002F48FFF799FA04E04FF480312D48FFF7A3
:104AD0009FFA4BE0012905D14FF400312848FFF738
:104AE0008BFA04E04FF400312648FFF791FA3DE0DD
:104AF000012905D14FF480712548FFF77DFA04E0C4
:104B00004FF480712348FFF783FA2FE0012905D184
:104B10004FF400711E48FFF76FFA04E04FF4007184
:104B20001C48FFF775FA21E0012020E000283FF43F
:104B300053AF01283FF45EAF02283FF469AF03286A
:104B40003FF474AF04283FF47FAF05283FF48AAFE9
:104B500006283FF495AF0728A0D00828ACD0092834
:104B6000B8D00A28C4D00B28D0D0DDE70020DDF86B
:104B700000E001B0704700BF50F00F4040F00F4020
:104B800090F00F4080F00F4010F00F4000F00F4009
:084B9000D0F00F40C0F00F400F
:104BBC0081B0CDF800E0A9E0012905D14FF040010A
:104BCC006548FFF713FA04E04FF040016348FFF724
:104BDC0019FABBE0012905D14FF480615E48FFF75B
:104BEC0005FA04E04FF480615C48FFF70BFAADE086
:104BFC00012905D14FF004015948FFF7F7F904E0FA
:104C0C004FF004015748FFF7FDF99FE0012905D14A
:104C1C004FF020015248FFF7E9F904E04FF0200172
:104C2C005048FFF7EFF991E0012905D14FF08001D1
:104C3C004B48FFF7DBF904E04FF080014948FFF7E0
:104C4C00E1F983E0012905D14FF040014448FFF719
:104C5C00CDF904E04FF040014248FFF7D3F975E07D
:104C6C00012905D14FF010013F48FFF7BFF904E0CF
:104C7C004FF010013D48FFF7C5F967E0012905D158
:104C8C004FF080013448FFF7B1F904E04FF0800198
:104C9C003248FFF7B7F959E0012905D14FF48031BB
:104CAC002F48FFF7A3F904E04FF480312D48FFF7AC
:104CBC00A9F94BE0012905D14FF400312848FFF741
:104CCC0095F904E04FF400312648FFF79BF93DE0DD
:104CDC00012905D14FF480712548FFF787F904E0CD
:104CEC004FF480712348FFF78DF92FE0012905D18E
:104CFC004FF400711E48FFF779F904E04FF400718E
:104D0C001C48FFF77FF921E0012020E000283FF448
:104D1C0053AF01283FF45EAF02283FF469AF03287C
:104D2C003FF474AF04283FF47FAF05283FF48AAFFB
:104D3C0006283FF495AF0728A0D00828ACD0092846
:104D4C00B8D00A28C4D00B28D0D0DDE70020DDF87D
:104D5C0000E001B0704700BF50F00F4040F00F4032
:104D6C0090F00F4080F00F4010F00F4000F00F401B
:084D7C00D0F00F40C0F00F4021
:1056CC0081B0CDF800E00DE00846FFF75FFA10E07E
:1056DC000846FEF7F5FF0CE00846FEF7A9FF08E0C8
:1056EC00012006E00028EFD00128F1D00228F3D0E9
:0A56FC00F6E7DDF800E001B07047AA
:104B980081B0CDF800E0011D0A6801680846114699
:104BA800034AFFF7B9F90020DDF800E001B07047CB
:044BB800E0620000B7
:103F200081B0CDF800E003460C4615460648FEF782
:103F3000B7FB224619462B460348FEF72DFBDDF85A
:0C3F400000E001B0704700BF00C002406C
:1026A00081B00F49884206D10E4A0F490A600F4A8D
:1026B0000F490A6012E00F49884206D10E4A0A49C2
:1026C0000A600E4A0A490A6008E00D49884205D1AD
:1026D0000C4A05490A600C4A05490A6001B0704776
:1026E00000C00240013F00009407FF1FCD270000FB
:1026F0006007FF1F00D00240E13E000045280000B7
:0C27000000C00A40B93D00005527000051
:1025980084B0CDF800E00391014610460190029105
:1025A8001846FFF79DFA0299019800F010042409D3
:1025B8002346019002910846FFF7B8FA0299029162
:1025C8000846FFF7D7FA0299019800F000450C6811
:1025D8002C430C6000F080450C682C430C600C68A0
:1025E80044F440540C600D686FF4804405EA040418
:1025F8000C6001F20C059C002E1900F00F053468E0
:102608002C43346001F20C059C002E1900F0806503
:1026180034682C43346001F20C059C002E1900F03C
:10262800007534682C43346001F20C059C002E19A7
:1026380000F0807534682C43346001F20C059C006E
:102648002E1935686FF0F04405EA0404346001F28D
:102658000C059C002E1900F00F04E50634682C4385
:1026680034600191039A0846D9B2FFF72FFC01990B
:102678000D686FF0010405EA04040C60DDF800E061
:0426880004B07047E3
:101AE80081B0CDF800E040F2000C83464FEA8C014B
:101AF8000BEB01010968B1F1FF3F12D00BF1340182
:101B08004FEA8C03C91809680A460BEB03010968F8
:101B180008461146FFF76AF90CF1010C1FFA8CFC14
:0A1B2800E4E7DDF800E001B07047CB
:100DF40082B0CDF800E080464FEA581202F00702B4
:100E0400914608F01F04A24693010D4AD3184FF0EF
:100E14000102A240019218460A46019901F0C8F95C
:100E24004FEA0933074AD3184FEA8A029C1808F498
:100E3400E06322681A432260DDF800E002B07047E4
:080E440000F00F400090044093
:101B340081B00B49884203D1012252B209490A609B
:101B44000949884203D1012252B208490A6008496E
:101B5400884203D1012252B206490A6001B070479B
:101B640000C00240B007904200D00240B407904247
:081B740000C00A403006904257
:101B7C0081B002686FF4804102EA010101600168E2
:101B8C0041F00101016000F22C021149116000F2D8
:101B9C0008020021116000F20C024FF0F0411160BC
:101BAC0000F210024FF0F041116000F230020021FF
:101BBC00116000F2340200211160016841F44061AF
:101BCC0001600268034942EA0101016001B07047FB
:081BDC0000000A9A014000001C
:101ED40091B0CDF800E00F9010468DF840100E90B0
:101EE40001AB1846FEF79EFB4FF0FF330D93002322
:101EF40006930023089301230A9300230B930023E2
:101F04000593059B042B41D20D9B002B3ED000234F
:101F14000793079B102B35D20D9B002B32D0012346
:101F24000993099B032B29D20D9B3BB3099C029B6C
:101F340003FB04F6059B9C00314B1B191D68079B92
:101F44009C00304B1B191B686B43B6FBF3F4204613
:101F54000E9BA3420ED30E9B1C1A0C940D9BA34202
:101F640008D90C9B0D93059B0693079B08930B9034
:101F7400099B0A93099B5B1C0993D2E7079B5B1C93
:101F84000793C6E7059B5B1C0593BAE70F9B03F217
:101F94000C049DF840309B00E5182C681A4B04EAA9
:101FA40003032B600F9B03F20C049DF840309B004D
:101FB400E5180A9B5B1EDC072B6823432B600F9BF1
:101FC40003F20C049DF840309B00E518069B1B04AB
:101FD40003F440342B6823432B600F9B03F20C045F
:101FE4009DF840309B00E518089B03F00F042B6814
:101FF40023432B600B98DDF800E011B0704700BF5D
:0C20040020640000AC630000F0FFFC7FD3
:1006280081B0CDF800E00446FFF72AFF40F2E83138
:1006380000FB01F3194909680A0F1849096801F014
:100648007061090EC8B21549096801F47001090DF5
:10065800CDB21249096801F47021090CCEB2D1B2A9
:10066800491C09B259430F462360221D411C09B297
:10067800B7FBF1F1116004F20802691C09B2B7FB7B
:10068800F1F1116004F20C02711C09B2B7FBF1F12F
:100698001160DDF800E001B0704700BF44800440FD
:0C04880001480068704700BF9804FF1F87
:1046CC0081B0CDF800E0011D0A680168084611466A
:1046DC00034AFFF71FFC0020DDF800E001B0704733
:0446EC00E062000088
:10463C0081B0CDF800E0011D0A68016808461146FA
:10464C00034AFFF767FC0020DDF800E001B070477B
:04465C00E062000018
:10552C0081B0CDF800E011E00846FFF76FF816E007
:10553C000846FFF78FF812E00846FFF7AFF80EE0C9
:10554C000846FFF799F80AE0012008E00028EBD0A4
:10555C000128EDD00228EFD01028F1D0F4E7DDF8C7
:06556C0000E001B07047F1
:1046180081B0CDF800E0FFF705FC044A04490A60C0
:104628000020DDF800E001B0704700BF113E000037
:044638009404FF1FC8
:103E2C0081B0CDF800E003460A48FFF7C9F90A4A09
:103E3C0040F2000104B402B440F20002194640F210
:103E4C0000030448FFF7DAF802B0DDF800E001B037
:0C3E5C00704700BF00C006407462000008
:1031CC0081B0304988420CD12F4A30490A60304ACC
:1031DC0030490A60304A31490A60314A31490A6043
:1031EC004EE0314988420CD1304A28490A60304AB5
:1031FC0028490A602F4A29490A602F4A29490A603E
:10320C003EE02E4988420CD12D4A20490A602D4AB5
:10321C0020490A602C4A21490A602C4A21490A603B
:10322C002EE02B4988420CD12A4A18490A602A4AB6
:10323C0018490A60294A19490A60294A19490A6039
:10324C001EE0284988420CD1274A10490A60274AB7
:10325C0010490A60264A11490A60264A11490A6037
:10326C000EE0254988420BD1244A08490A60244AB9
:10327C0008490A60234A09490A60234A09490A6035
:10328C0001B0704700A006409D3D00009807FF1F4D
:10329C00993F00009C07FF1F813F0000A007FF1F04
:1032AC00693F0000A407FF1F00B00640813D0000ED
:1032BC00E13F0000C93F0000B13F000000C00640E4
:1032CC00113E0000A933000009340000393400001D
:1032DC0000D00640F53D000021340000F133000021
:1032EC005134000000A00E40D93D0000993400007C
:1032FC00D9330000C133000000B00E404D3F000038
:0C330C00B134000069340000813400007E
:1030080085B0CDF800E001900291ADF80C20ADF844
:103018001030BDF81440ADF814400698FEF760FD76
:103028000198FEF709FF02990198FEF7ABFBBDF87E
:103038000C100198FEF7E0FBBDF810100198FEF7A0
:10304800EBFBBDF814100198FEF786FB0198FEF71C
:1030580089FB0198FEF78EFBDDF800E005B07047AC
:101E400081B01849884204D1012252B216490A6071
:101E500026E01649884204D1012252B214490A6090
:101E60001EE01449884204D1012252B212490A608C
:101E700016E01249884204D1012252B210490A6088
:101E80000EE01049884204D1012252B20E490A6084
:101E900006E00E49884203D1012252B20C490A6081
:101EA00001B0704700A00640A806904200B006406E
:101EB000AC06904200C00640B006904200D00640FA
:101EC000B406904200A00E402805904200B00E409B
:041ED0002C0590420B
:10178C0085B0CDF800E08046894601AA1046FEF7E8
:10179C0045FF164A904503D0154A904500D001E00C
:1017AC00019800E002984FEA0912B0FBF2F291B2F4
:1017BC0092B2130A9BB298F800201A4388F80020C2
:1017CC0008F10103CAB21A7043014FEA0912B3FBC4
:1017DC00F2F34A0192B29A1AD0B208F10A031A78BB
:1017EC0002431A70DDF800E005B0704700A0064017
:0417FC0000B00640F3
:1018000081B0841C23784FF6EF7212B203EA020211
:101810002270841C0B0122781A43227001B0704799
:1018200081B001F0020262B1841C01F0020322784F
:101830001A432270841C01F0010322781A4322709B
:1018400007E0841C23784FF6FD7212B203EA02020D
:06185000227001B0704798
:0C17600081B002780A43027001B07047AB
:10176C0081B0C21C117841F00401117001B07047B6
:10177C0081B0C21C117841F00801117001B07047A2
:1046600081B0CDF800E0FFF7FFFB044A04490A607F
:104670000020DDF800E001B0704700BFF53D00000C
:044680009404FF1F80
:103E680081B0CDF800E003460A48FFF7ABF90A4AEB
:103E780040F2000104B402B440F20002194640F2D4
:103E880000030448FFF7BCF802B0DDF800E001B019
:0C3E9800704700BF00D006400862000028
:1046A80081B0CDF800E0FFF7DBFB044A04490A605B
:1046B8000020DDF800E001B0704700BFF53D0000C4
:0446C8009404FF1F38
:1046840081B0CDF800E0FFF70BFC044A04490A604E
:104694000020DDF800E001B0704700BF9D3D000040
:0446A4009404FF1F5C
:103EA40081B0CDF800E003460A48FFF78DF90A4ACD
:103EB40040F2000104B402B440F20002194640F298
:103EC40000030448FFF79EF802B0DDF800E001B0FB
:0C3ED400704700BF00A006409C61000089
:1057440081B0CDF800E01A491A48FFF711FFFFF7BE
:10575400D1FEFFF721FF40F600010020FFF77CFF98
:1057640047F600210220FFF777FF42F200010320F1
:10577400FFF772FF2F212F20FFF798FF0120FFF77B
:105784002DFE0D480221FFF7A1FCFFF7D7FC00B165
:10579400FBE700210948FFF719FF00B9F9E70848BA
:1057A4000221FFF793FCDDF800E001B0704700BF71
:1057B400406400004C6300000000FF1F1A00FF1F3C
:0457C4001A02FF1FA7
:1055740081B0CDF800E003460846FFF75FFD18460A
:10558400FFF740FD0120034C2468A047DDF800E04C
:0855940001B07047B407FF1FCE
:0C4D840001490860704700BF0808FE43AA
:0C4DE40001490860704700BF2C08FE4326
:0C4DD80001490860704700BF1010FE4346
:0C4DF00001490860704700BF1410FE432A
:0C4E080001490860704700BF1C10FE4309
:0C4DFC0001490860704700BF1810FE431A
:0C4DCC0001490860704700BF2800FE434A
:0C4D9C0001490860704700BF3408FE4366
:0C4D900001490860704700BF0818FE438E
:0C4DA80001490860704700BF0C18FE4372
:0C4DC00001490860704700BF2018FE4346
:0C4DB40001490860704700BF2418FE434E
:0C42C80001490860704700BF0C08FE436D
:0C40400001490860704700BF4C08FE43B7
:0C40340001490860704700BF0C10FE43FB
:0C40640001490860704700BF1410FE43C3
:0C42EC0001490860704700BF1C10FE4331
:0C42E00001490860704700BF1810FE4341
:0C42D40001490860704700BF2C00FE4349
:0C40280001490860704700BF2008FE43FB
:0C404C0001490860704700BF4010FE43AF
:0C40580001490860704700BF4410FE439F
:0C42F80001490860704700BF2018FE4319
:0C44440001490860704700BF2418FE43C7
:0C44380001490860704700BF1808FE43EF
:0C44500001490860704700BF2808FE43C7
:0C445C0001490860704700BF0810FE43D3
:0C43100001490860704700BF1410FE4314
:0C43040001490860704700BF1C10FE4318
:0C431C0001490860704700BF1810FE4304
:0C43340001490860704700BF1000FE4304
:0C43280001490860704700BF1C08FE43FC
:0C4E140001490860704700BF4010FE43D9
:0C4FF00001490860704700BF4410FE43F8
:0C4FE40001490860704700BF2018FE4320
:0C4FFC0001490860704700BF2418FE4304
:10504000026803490A60011D0A6802490A60704744
:08505000B807FF1FBC07FF1F9A
:1050080000F230010A6808490A6000F208010A68DB
:1050180006490A60011D0A6805490A6000F21C0178
:105028000A6804490A607047A807FF1FB407FF1FF2
:08503800B007FF1FAC07FF1FCA
:1054F80081B0CDF800E00120074C2468A0470120C6
:10550800064C2468A0470120054C2468A047DDF814
:1055180000E001B0704700BFAC07FF1FB407FF1FD2
:04552800B007FF1FAA
:10559C0081B0CDF800E00020084C2468A047FFF74C
:1055AC0081FC0120054C2468A047054C2468A047C9
:1055BC0000B9FAE7DDF800E001B07047B007FF1F53
:0455CC00A807FF1F0E
:0C4FD80001480068704700BF080AFE4353
:0C4FA80001480068704700BF2C0AFE435F
:0C4F9C0001480068704700BF1012FE437F
:0C4FB40001480068704700BF1412FE4363
:0C4FCC0001480068704700BF1C12FE4343
:0C4FC00001480068704700BF1812FE4353
:0C50AC0001480068704700BF2802FE4366
:0C50B80001480068704700BF340AFE4346
:0C50C40001480068704700BF081AFE4356
:0C50940001480068704700BF0C1AFE4382
:0C50640001480068704700BF201AFE439E
:0C50580001480068704700BF241AFE43A6
:0C50880001480068704700BF0C0AFE439E
:0C507C0001480068704700BF4C0AFE436A
:0C50A00001480068704700BF0C12FE437E
:0C50700001480068704700BF1412FE43A6
:0C4E800001480068704700BF1C12FE4390
:0C4E740001480068704700BF1812FE43A0
:0C4E680001480068704700BF2C02FE43A8
:0C4EA40001480068704700BF200AFE4370
:0C4E980001480068704700BF4012FE4354
:0C4E8C0001480068704700BF4412FE435C
:0C4E380001480068704700BF201AFE43CC
:0C4E2C0001480068704700BF241AFE43D4
:0C4E200001480068704700BF180AFE43FC
:0C4E5C0001480068704700BF280AFE43B0
:0C4E500001480068704700BF0812FE43D4
:0C4E440001480068704700BF1412FE43D4
:0C4F6C0001480068704700BF1C12FE43A3
:0C4F600001480068704700BF1812FE43B3
:0C4F540001480068704700BF1002FE43D7
:0C4F900001480068704700BF1C0AFE4387
:0C4F840001480068704700BF4012FE4367
:0C4F780001480068704700BF4412FE436F
:0C4ED40001480068704700BF201AFE4330
:0C4EC80001480068704700BF241AFE4338
:104EB00040F6FE07C0F23D0700BF00BF7F1EFDD1D8
:084EC00000BF00BF00BF7047F6
:10565C0082B0CDF800E001AC02222270621C107006
:10566C00A31C0A0A1A70E31C01F0FF021A70002036
:10567C000A4C2468A04701AA04211046FFF746FCF7
:10568C000120064C2468A047054C2468A04700B9AB
:10569C00FAE7DDF800E002B0704700BFB407FF1F67
:0456AC00A807FF1F2D
:104F180083B0CDF800E08AB2014690B283B2421E57
:104F280090B26BB10A78D4B2ADF804000291A0B285
:104F3800054C2468A0470299BDF80400491CEDE718
:0C4F4800DDF800E003B07047B807FF1F61
:103F000081B0CDF800E082B24FF080610348FEF747
:103F10008BFEDDF800E001B0704700BF00C002403A
:102C280081B000F22C044FF00043236000F234041A
:102C380093B241EA0303236000F22C031C68C4F337
:0A2C4800C07303B9F8E701B070474C
:103EE00081B0CDF800E082B24FF080610348FEF768
:103EF0009BFEDDF800E001B0704700BF00D002403B
:103DB80081B0CDF800E082B24FF080610348FEF791
:103DC8002FFFDDF800E001B0704700BF00C00A40D7
:103D9C0081B0CDF800E081B20348FEF7B1FCDDF84C
:0C3DAC0000E001B0704700BF00A006401E
:10270C0081B0ADF800100146BDF800000A1D137829
:10271C00C3F3C01202B9F9E7CA1D107001B07047BB
:103D800081B0CDF800E081B20348FEF7BFFCDDF85A
:0C3D900000E001B0704700BF00B006402A
:103E100081B0CDF800E081B20348FEF777FCDDF811
:0C3E200000E001B0704700BF00C0064089
:103DF40081B0CDF800E081B20348FEF785FCDDF820
:0C3E040000E001B0704700BF00D0064095
:103DD80081B0CDF800E081B20348FEF793FCDDF82E
:0C3DE80000E001B0704700BF00A00E40DA
:103F4C0081B0CDF800E081B20348FEF7D9FBDDF873
:0C3F5C0000E001B0704700BF00B00E4054
:1056B00081B0CDF800E0020292B2521891B20B20F4
:0C56C000FFF7CCFFDDF800E001B0704700
:1053E00081B0002821D1234A23490A60234A244955
:1053F0000A60244A24490A60244A25490A60254A49
:1054000025490A60254A26490A60264A26490A6033
:10541000264A27490A60274A27490A60274A284915
:105420000A60284A28490A6022E0012820D1274A38
:1054300011490A60264A12490A60264A12490A603E
:10544000254A13490A60254A13490A60244A144927
:105450000A60244A14490A60234A15490A60234A0B
:1054600015490A60224A16490A60224A16490A600A
:1054700001B07047C93400007802FF1F552C0000AE
:105480006402FF1FF92C00007402FF1F6D1A000058
:105490007C02FF1FF11900008002FF1F6121000044
:1054A0006C02FF1F991900006802FF1F653C000095
:1054B0007002FF1F491900008402FF1FBD1D00007C
:1054C0008802FF1F353C00008C02FF1FC53B000017
:1054D00019330000B1300000791D0000D920000010
:1054E000D118000011200000F93C000059180000FC
:0854F000B11C0000593D000051
:1050D00083B0CDF800E0024610460D228DF808207E
:1050E0000A228DF809201FE0FFF706FF23E002786F
:1050F0002AB10190FFF700FF0198401CF7E71AE082
:1051000002782AB10190FFF7F7FE0198401CF7E7FB
:1051100002AA1046FFF7F0FE0DF109021046FFF754
:10512000EBFE08E0062007E00029DDD00129DED0F3
:105130000229E5D0F6E70020DDF800E003B0704773
:104EF80081B0CDF800E00178CCB2A0B2034C2468B0
:104F0800A0470020DDF800E001B070479404FF1FBF
:1051400082B0CDF800E000228DF80420FFF7C8FE01
:105150009DF80420511CC0B218B1322901D2CAB244
:10516000F2E7322901D3FF2003E0FFF7E9F8FFF768
:0A5170007BF9DDF800E002B07047A3
:104EE00081B0CDF800E0034C2468A047DDF800E075
:084EF00001B070477802FF1FBA
:103F980081B0CDF800E00348FEF7E0FADDF800E074
:083FA80001B0704700A00640C3
:1025640081B0011D0A78C2F3401101B9F9E7C11D18
:082574000978C8B201B07047FC
:103F800081B0CDF800E00348FEF76CFDDDF800E0FD
:083F900001B0704700A00640DB
:0E2A640081B0011D0978C1F3401001B0704728
:103F680081B0CDF800E00348FFF78AF8DDF800E0FB
:083F780001B0704700A00640F3
:0E30880081B0011D0978C1F3801001B07047BE
:103FE00081B0CDF800E00348FEF7BCFADDF800E050
:083FF00001B0704700B006406B
:103FC80081B0CDF800E00348FEF748FDDDF800E0D9
:083FD80001B0704700B0064083
:103FB00081B0CDF800E00348FFF766F8DDF800E0D7
:083FC00001B0704700B006409B
:1033A80081B0CDF800E00348FFF7D8F8DDF800E079
:0833B80001B0704700C006409F
:1034080081B0CDF800E00348FFF728FBDDF800E0C5
:0834180001B0704700C006403E
:1034380081B0CDF800E00348FFF722FEDDF800E098
:0834480001B0704700C006400E
:1034200081B0CDF800E00348FFF79CF8DDF800E03C
:0834300001B0704700D0064016
:1033F00081B0CDF800E00348FFF734FBDDF800E0D2
:0834000001B0704700D0064046
:1034500081B0CDF800E00348FFF716FEDDF800E08C
:0834600001B0704700D00640E6
:1034980081B0CDF800E00348FFF760F8DDF800E000
:0834A80001B0704700A00E40C6
:1033D80081B0CDF800E00348FFF740FBDDF800E0DE
:0833E80001B0704700A00E4087
:1033C00081B0CDF800E00348FFF75EFEDDF800E0D5
:0833D00001B0704700A00E409F
:1034B00081B0CDF800E00348FFF754F8DDF800E0F4
:0834C00001B0704700B00E409E
:1034680081B0CDF800E00348FFF7F8FADDF800E096
:0834780001B0704700B00E40E6
:1034800081B0CDF800E00348FFF7FEFDDDF800E075
:0834900001B0704700B00E40CE
:1034C80083B0CDF800E005213C4801704FF2C00000
:1034D800C4F20F004FF001014FEA0111384AFEF71C
:1034E80065FEFFF71FF900210A290AD2ADF804107A
:1034F800FF20344C2468A047BDF80410481C81B252
:10350800F2E7FFF7D7F9952200210020FFF73EFBED
:10351800ADF80800FFF706F9BDF80800012801D04A
:10352800012046E0FFF7C6F9872240F2AA110820D9
:10353800FFF72CFBADF80800FF20224C2468A047B9
:10354800FF20204C2468A047FF201E4C2468A04779
:10355800FF201C4C2468A047FFF7E4F8BDF80800DA
:10356800012807D00120FFF781FA10B10020FFF7EA
:103578007DFA02E00220FFF779FA10480078052862
:1035880001D1022015E00D480078042810D0FFF77B
:1035980091F9FF2240F200211020FFF7F7FAADF869
:1035A8000800FFF7BFF8BDF8080008B1032000E0E5
:1035B8000020DDF800E003B0704700BF5902FF1F8C
:0835C800040104006007FF1F6D
:1027CC0081B0CDF800E01749096841F001021549C4
:1027DC000A6014490A686FF4406102EA010141F48D
:1027EC00406210490A60104A10490A6010490A6890
:1027FC0010490A400E490A600A490A686FF0010143
:10280C000A4008490A6082B24FF08061054800F026
:10281C0005FA0448FEF744FC80B2DDF800E001B094
:10282C00704700BF00C0024000000A9A2CC0024052
:08283C0008C00240FFFF00008C
:1010AC0081B000F22C010A68C2F3404101B9F8E7A3
:1010BC0000F2380109688BB200F22C024FF40031B7
:0810CC00116098B201B07047F9
:1028440081B0CDF800E01749096841F0010215494B
:102854000A6014490A686FF4406102EA010141F414
:10286400406210490A60104A10490A6010490A6817
:1028740010490A400E490A600A490A686FF00101CA
:102884000A4008490A6082B24FF08061054800F0AE
:10289400C9F90448FEF708FC80B2DDF800E001B095
:1028A400704700BF00D0024000000A9A2CD00240BA
:0828B40008D00240FFFF000004
:1027540081B0CDF800E01749096841F0010215493C
:102764000A6014490A686FF4406102EA010141F405
:10277400406210490A60104A10490A6010490A6808
:1027840010490A400E490A600A490A686FF00101BB
:102794000A4008490A6082B24FF08061054800F09F
:1027A40041FA0448FEF780FC80B2DDF800E001B095
:1027B400704700BF00C00A4000000A9A2CC00A40BB
:0827C40008C00A40FFFF0000FD
:10272C0081B0CDF800E0012149B205480160FF20DD
:10273C00044C2468A047DDF800E001B0704700BFEE
:08274C001018FE436007FF1F97
:1028BC0081B0002149B20248016001B0704700BFED
:0428CC001018FE439F
:102B940084B0CDF800E002918DF80C2000F24004DE
:102BA400A0B21F4C2468A04702ABDB1C1B78DCB22C
:102BB400A0B21B4C2468A04702AB9B1C1B78DCB260
:102BC400A0B2174C2468A04702AB5B1C1B78DCB294
:102BD400A0B2134C2468A04702AB1B78DCB2A0B2AD
:102BE4000F4C2468A0479DF80C000D4C2468A047A6
:102BF4000021ADF80410FF20094C2468A047BDF85B
:102C0400041082B24B1C99B200F080039BB213B142
:102C1400642900D2EDE790B2DDF800E004B070471B
:042C24006007FF1F27
:102A740084B0CDF800E08DF80C000021ADF804100E
:102A8400BDF8042042F210718A4280F077809DF8EC
:102A94000C1099B9FFF710FFFF220021012000F06C
:102AA40077F8ADF80600FFF73FFEBDF8061021B930
:102AB400002235490A70002061E059E0FFF7FCFE6E
:102AC400FF220021372000F063F8ADF80600FFF77D
:102AD4002BFEBDF80610012949D1FFF7EDFEFF22B8
:102AE4004FF08041292000F053F8ADF80600FFF7BD
:102AF4001BFEBDF80610002938D19DF80C100229E0
:102B04002FD1FFF7D9FEFF2200213A2000F040F830
:102B1400ADF80600FF201D4C2468A047ADF808005E
:102B2400FF201A4C2468A047FF20184C2468A047B3
:102B3400FF20164C2468A047FFF7F6FDBDF80610E9
:102B440071B9BDF8081001F0400189B219B104222D
:102B54000D490A7002E003220B490A7000200EE0BE
:102B640004E0012208490A70002008E000E005E0C2
:102B7400BDF80410491CADF8041081E70120DDF80C
:102B840000E004B0704700BF5902FF1F6007FF1F39
:103C640082B0CDF800E040F24C00214C2468A0471B
:103C740000201F4C2468A04700201D4C2468A04746
:103C840000201B4C2468A0470020194C2468A0473E
:103C9400FF20174C2468A0470022ADF80420FF2021
:103CA400134C2468A047BDF8042083B2511C8AB287
:103CB40000F0800080B210B1642A00D2EDE703F076
:103CC400800080B238B1ADF80430FEF72DFDBDF8A8
:103CD400043098B208E0FF20054C2468A04700286F
:103CE400F9D0FEF721FD0020DDF800E002B07047B6
:043CF4006007FF1F47
:103C340081B0CDF800E0FD20084C2468A047FF20A7
:103C4400064C2468A047B0F1FF0F00D0F7E7FEF759
:103C54006BFD0020DDF800E001B070476007FF1F36
:103BC40082B0CDF800E0FEF781FE08B1012027E0C5
:103BD400FFF79CF908B1012022E01348026812485B
:103BE40001686FF0060001400F4801600F4800684B
:103BF4000192FFF775F8019AC4B23CB902F00600CD
:103C04000192FFF7A9FA019AC4B2FFE706480260DD
:103C140040F20020FFF7DCF808B1012000E0A0B278
:103C2400DDF800E002B0704728100B406002FF1F6F
:1028D00094B0CDF800E04FF00000129000208DF889
:1028E0004C0000200190002002900120FEF724FB04
:1028F000554801686FF0010001405348016005A888
:10290000FEF78CFC01208DF80C0005A88DB08446E4
:102910000DF1000B0BF1340A03F006F84B48FEF7FB
:10292000C3FC0DB04A494FF08070FEF701FE002154
:102930004FF0FF30FEF73CF900214FF0FF30FEF77B
:102940003BFA444C01214348FEF732F9012120466D
:10295000FEF732FA05A8FEF761FC4FF400700D9007
:1029600080200F9080201090002011900BA8FEF77F
:10297000F7F90FA8FEF732F905A8FEF73FF9364838
:10298000049001208DF80C0003A8FEF761F9FEF712
:10299000BBFD08B1012053E0FEF7E8FDA0B900201F
:1029A000FEF770FDB0F5D57F07D14FF001012B4840
:1029B00001604FF08040129005E04FF0FF31274852
:1029C000016001203CE002E00020FEF765FD0020F0
:1029D000FEF762FD002832D19DF84C0008BB01993A
:1029E0001F4881421DD20020FEF756FD08B101208C
:1029F00026E01298FEF76EFD08B1012020E00020CD
:102A0000FEF740FD0290C00F012802D1012040B224
:102A100001E0002040B28DF84C000198401C01906C
:102A2000DAE701990E48814201D3012008E00298BB
:102A300000F0804018B14FF002010848016000200A
:102A4000DDF800E014B0704700D0004030610000B5
:102A50001027000003007F01801A06005C02FF1FA0
:042A6000FFFF000074
:100F380081B00249086001B0704700BF4406904282
:10121C0081B0021D204911600021017000F208020A
:10122C000021116000F208010A1D4FF0000111604D
:10123C0000F2080101F208020021116000F208011D
:10124C0001F20C020021116000F218024FF00001B3
:10125C00116000F218010A1D4FF02001116000F21C
:10126C00180101F208024FF00001116000F21801A0
:10127C0001F20C020021116000F228021021116011
:10128C0000F228010A1D1021116000F23002012128
:0C129C00116001B0704700BFA086010087
:1012A80082B0CDF800E001904FF00000FFF726FC77
:1012B80002A90846FFF7C8FC1349097829B901981B
:1012C80000F00EFC012210490A7008A90846FFF731
:1012D80043FD0CA90846FFF77DFC02A90846FFF765
:1012E80089FC04A90846FFF735FC00214FF0FF30C0
:1012F800FFF75AFC00214FF0FF30FFF759FDDDF8EA
:0C13080000E002B0704700BF5A02FF1F57
:100B040081B078B1B0F1805F0CD00F49884209D030
:100B14000E49884206D0B0F1005F03D0B0F1405FC7
:100B240000D00DE00A490A680A490A4008490A60E7
:100B34000749096841EA000205490A60012000E00A
:100B4400002001B0704700BF000001100000031036
:080B540004800440000003309E
:100C500086B0CDF800E04FF010084FF4807A4FF0E6
:100C600001094FF0020B3B490A686FF00F010A407F
:100C700038490A600178012940F0688035490A68DE
:100C8000354902EA01018C4602A901900846FFF7A6
:100C9000CBFC0198011D0968002938D90299B1FBE4
:100CA000F8F1B1FBFAF2011D09688A4205D95046F4
:100CB00041460B460146604628E0074660464646E8
:100CC00055464C465B460299B1FBF3F1B1FBF6F297
:100CD000391D09688A4203D9AB4201D25B00F2E7B1
:100CE00001960546384626461C46019B0299B1FBF3
:100CF000F4F1B1FBF6F2011D09688A4203D99E4264
:100D000001D2761CF2E733462146284602E06046CF
:100D100059464B464A08591E1202090142EA01018E
:100D200040EA01026FF4702102EA010141F46021FE
:100D300041F0070207490A600849096801B1FBE769
:100D40000449096841F0080202490A60DDF800E040
:100D500006B070472C100B400F00FFFF8C0462435D
:100D600081B012490A68124902EA01010B4600F2F9
:100D70000C010A680E4902EA010143EA01020D4929
:100D80000A40016801F001010A43011D096801F0F0
:100D900030010A4300F20801096801F4407142EA97
:100DA000010108460149086001B0704728100B4056
:080DB00088000D07CEFCFFFFD7
:100BDC0081B0016809040A46011D096842EA010155
:100BEC0008460249086001B0704700BF44100B4032
:100BFC0081B007490A686FF003010A4000F2300126
:100C0C00096842EA010108460149086001B07047D1
:040C1C00C0100B40B9
:100B5C0081B04FF0000201680A43011D09680A4385
:100B6C0000F2080109680A4300F20C01096801F05F
:100B7C00D00142EA010108460149086001B0704702
:040B8C00C4100B4046
:100BB00081B0012906D1084A126842EA0003064AB8
:100BC000136006E0C343044A126802EA0303024AC0
:0C0BD000136001B0704700BF34100B40F0
:100DB80081B0012906D1084A126842EA0003064AAE
:100DC800136006E0C343044A126802EA0303024AB6
:0C0DD800136001B0704700BF38100B40E2
:1015300081B000F0E06318460B4A126842EA0303E8
:10154000094A1360084A126802401AB101B901E061
:10155000491EF7E7002940F2000200D10122D2B271
:0C156000D0B201B0704700BF2C100B404F
:1015080087B0CDF800E001A8FFF7ECFC00200390BD
:101518004FF00000059001A8FFF794FCFFF7C0F812
:08152800DDF800E007B0704798
:100EEC0081B000210160021D0021116000F2080296
:100EFC004021116000F20C024FF00001116000F271
:100F0C0010024FF00001116000F214020021116078
:040F1C0001B0704769
:100E4C0081B02249096801B1FBE700F20801096889
:100E5C00A1B100F2080109680C2910D000F20801B8
:100E6C0009680D290CD000F208010968342908D052
:100E7C0017490968002900D0FAE7FFE7FFE7FFE709
:100E8C00FFE7011D0A6813490A6000F208010968AE
:100E9C00090601F07C5200F20C01096801F44001D2
:100EAC000A4300F21001096801F4403142EA0101E1
:100EBC000B4600F214010A68074902EA010143EAF1
:100ECC00010108460549086001B07047800462437F
:100EDC008404624308100B40370038000C100B40A0
:1006A80081B0CDF800E00B4A002A06D94FF00100CE
:1006B800FFF7F4FE08B9521EF6E70AB9012004E074
:1006C8004FF00300FFF7E2FE0020DDF800E001B084
:0806D800704700BF102700006D
:1004A40081B0054909680140814201D1012000E081
:0C04B400002001B0704700BF30100B406A
:1004940081B00249086001B0704700BF30100B40C2
:10156C0087B0CDF800E001A8FFF7BAFC0820039083
:10157C004FF4D57002904FF4003005904FF4C0102A
:10158C00069001A8FFF75CFCFFF73CF8FFF706F8A4
:08159C00DDF800E007B0704724
:1006100041F67E27C0F2060700BF00BF7F1EFDD156
:0806200000BF00BF00BF7047DE
:1005A80081B0CDF800E015480268154801461548A5
:1005B80002EA000028B9002903D9491E0F48026839
:1005C800F5E719B102F4803000B905E04FF4803046
:1005D800FFF75CFF01200DE002F4003028B14FF472
:1005E8000030FFF753FF012004E04FF00300FFF74E
:1005F8004DFF0020DDF800E001B0704730100B40DF
:080608001027000001000300AF
:1014840081B0034A810051180968084601B07047C9
:0414940010100B40E9
:1014980087B0CDF800E0034601A90846FFF722FD12
:1014A800372103914FF4003105914FF4C011069193
:1014B8000BB11904029101A90846FFF7C3FCFFF715
:0A14C8000BF9DDF800E007B07047F3
:1006E00081B0CDF800E0484802684849484802EA2D
:1006F000000028B9002903D9491E43480268F5E7DC
:1007000019B102F4803000B905E04FF48030FFF7F2
:10071000C1FE012073E002F4003028B14FF4003034
:10072000FFF7B8FE01206AE002F4002028B14FF480
:100730000020FFF7AFFE012061E04FF00300FFF75C
:10074000A9FE002000F09EFE0246410A01F00F01C2
:1007500008463049084008B9002050E002F0004047
:1007600008B101204BE002F0804008B1012046E0D2
:1007700002F0005008B1012041E002F0805008B1C1
:1007800001203CE002F0006008B1012037E002F0F7
:10079000806008B1012032E002F4000008B10120BD
:1007A0002DE002F4800008B1012028E002F40010DE
:1007B00008B1012023E002F4801008B101201EE0FE
:1007C00002F4002008B1012019E002F4802008B1F1
:1007D000012014E002F4003008B101200FE002F41F
:1007E000803008B101200AE002F4804008B1012005
:1007F00005E002F0080008B1012000E00020DDF86B
:1008000000E001B0704700BF30100B40102700001F
:080810000100030008E0FFFDF8
:1014D40087B0CDF800E001A90846FFF705FD2921F2
:1014E4000391074902914FF40031059101A908467F
:1014F400FFF7AAFCFFF750FADDF800E007B07047E9
:041504000000304073
:10099C0081B0CDF800E0104802681048014602F022
:1009AC00011028B9002903D9491E0B480268F6E743
:1009BC0019B102F4803000B905E04FF48030FFF734
:1009CC0063FD012004E04FF00300FFF75DFD002004
:1009DC00DDF800E001B0704730100B40102700002C
:102F100081B0CDF800E0FEF7DDFB08B901205BE0F1
:102F20002F48006804281CD0FEF7E0FB08B1012000
:102F300052E00020FEF7A6FA2A4908600120FEF7B9
:102F4000A1FA294908600220FEF79CFA2749086087
:102F50000320FEF797FA6FF07F4100EA0101244851
:102F600001601F48006860B11D480068012808D052
:102F70001B480068062804D019480068022800D0C1
:102F800006E01C490020FEF7C9FB08B1012023E040
:102F90001348006804281ED016480068FEF702FB9C
:102FA00008B1012018E00020FEF76CFA1249086011
:102FB0000120FEF767FA114908600220FEF762FA65
:102FC0000F4908600320FEF75DFA6FF07F4100EAC9
:102FD00001010C4801600020DDF800E001B07047FD
:102FE0005C02FF1F6407FF1F6807FF1F6C07FF1FBE
:102FF0007007FF1F6002FF1F7407FF1F7807FF1F86
:083000007C07FF1F8007FF1F82
:1016D40081B00448006808B1012000E0002001B096
:0816E400704700BF440690426C
:1016EC0087B0CDF800E001A8FFF7FAFB02200390C9
:1016FC004FF4803005904FF40020069001A8FFF7BE
:0E170C009FFBFFF711F9DDF800E007B0704712
:1009340081B0CDF800E01548026815480146154815
:1009440002EA000028B9002903D9491E0F480268A9
:10095400F5E719B102F4803000B905E04FF48030B6
:10096400FFF796FD01200DE002F4003028B14FF4AA
:100974000030FFF78DFD012004E04FF00300FFF786
:1009840087FD0020DDF800E001B0704730100B4017
:08099400102700000100030020
:10171C0087B0CDF800E003460C4601AA1046FFF74F
:10172C00DFFB032203924FF4003205924FF4C012F8
:10173C0006920BB11A04029201AA1046FFF780FB25
:10174C00FEF760FF2046FFF77DF9DDF800E007B0FB
:02175C007047D4
:100A500081B0CDF800E002462749096827481346CF
:100A60000A46274902EA010129B9002803D9401E94
:100A700021490A68F5E718B102F4803101B905E0AF
:100A80004FF48030FFF706FD012030E002F4003122
:100A900029B14FF40030FFF7FDFC012027E002F4FC
:100AA000002129B14FF40020FFF7F4FC01201EE0E3
:100AB0004FF00300FFF7EEFC002000F0E3FC0246DD
:100AC00000F4604119B9110C196000200FE002F424
:100AD000005109B101200AE002F4804109B101206E
:100AE00005E002F4004109B1012000E00020DDF83A
:100AF00000E001B0704700BF30100B40102700002D
:040B000001000300ED
:1015A40087B0CDF800E0034601A90846FFF79CFC8C
:1015B400092103914FF4803105914FF400210691E4
:1015C4000BB11904029101A90846FFF73DFCFFF78E
:0A15D400AFF9DDF800E007B0704742
:102CE40081B0CDF800E0FEF779FCDDF800E001B03A
:022CF400704727
:1015E00087B0CDF800E0034601A90846FFF77EFC6E
:1015F000072103913BB1190402914FF44031059149
:101600004FF4C011069101A90846FFF71FFCFFF730
:0A16100067F8DDF800E007B070474E
:10315C0081B0CDF800E019490968032906D1B0F512
:10316C00805F01D1002024E0012022E0134909688E
:10317C0041B112490968012904D010490968022992
:10318C0000D015E0B0F5805F01D1012011E0B0F561
:10319C00006F07D10120FEF73BFA002801D0012077
:1031AC0007E005E00020FEF733FA08B1012000E04B
:1031BC000020DDF800E001B0704700BF5C02FF1F8B
:10161C0086B0CDF800E0C3B20DF1100B0BF1080A47
:10162C00DFF898C004F07AF904AA254909688DF806
:10163C00043088B21146FFF7E9F89DF8043008B180
:10164C00012037E01F49039101218DF8081002A9F0
:10165C008DF804300846FFF7F5FA9DF80430012B9D
:10166C0014D104A9091D096801F4806161B1144900
:10167C0009680846FFF70AFF08B101201AE040F29A
:10168C000200FFF735F915E0012013E004A9091D4C
:10169C00096801F4807161B1094909680846FFF7CE
:1016AC00F5FE08B1012005E040F20000FFF720F93B
:1016BC0000E00120DDF800E006B070473064000067
:0816CC006002FF1F40787D0160
:1008180081B0CDF800E00C460E4A1268104600F090
:1008280037FE08B1012010E02046FFF745FE08B169
:1008380001200AE000214FF0080000F0B5F900217E
:100848004FF0080000F0B4FA0020DDF800E001B035
:08085800704700BF6002FF1FA2
:1004C0008CB0CDF800E0044607A90846FFF7C2FF4C
:1004D000082108910121099107A90846FFF7A8FF03
:1004E0004FF40070FFF794FF01A9084600F0FEFCEE
:1004F00007A90191332103914FF4003105914FF485
:10050000C01106911C490691099A08994A430B9417
:100510001A491140090441F0210141F002010A91F8
:100520000B9A17490A600A9A16490A601548FFF79C
:100530009FFF01214FF0080000F03AFB01214FF02E
:10054000080000F039FC01A9084600F07FFC2246B3
:100550004FF00200FFF7A6FF00B9F9E7116808465F
:10056000111D09681160111D086000F0B9F8DDF86F
:1005700000E00CB0704700BF11003800FFFF000022
:080580008807FF1F8407FF1F1D
:1004540081B0021D0021116000F208020021116028
:0A0464004FF46021016001B0704701
:1004300081B0011D09680A4600F208010968090433
:1004400042EA010108460249086001B0704700BF56
:0404500004100B4049
:1004100081B006490A686FF440710A4042EA00015F
:1004200008460249086001B0704700BF28100B4021
:1004700081B0002202490A600249086001B0704759
:0804800000100B4058100B4066
:1008FC0087B0CDF800E0034601A9084600F0F0FAF5
:10090C00062103914FF4003105914FF4C01106916B
:10091C00029301A9084600F093FAFFF7DBFEDDF81D
:06092C0000E007B0704777
:102DD40087B0CDF800E0034601A90846FEF784F861
:102DE400102103914FF4003105914FF4C011069165
:102DF400029301A90846FEF727F8FDF76FFCDDF8FA
:062E040000E007B070477A
:103CF80081B0CDF800E0FFF785F808B1012005E0B4
:103D080004494FF08060FDF70FFC0020DDF800E06B
:083D180001B070471027000004
:102E0C0087B0CDF800E001A8FEF76AF80C2003901B
:102E1C004FF4403005904FF4C01006904FF4400032
:102E2C00049001A8FEF70CF8FDF754FCDDF800E067
:042E3C0007B0704724
:103D580081B0CDF800E0FFF755F808B1012005E083
:103D680004494FF08060FDF7DFFB0020DDF800E03C
:083D780001B0704710270000A4
:1043400081B0CDF800E001212B48017040F200223D
:1043500012B200212948FFF7EFFC0026022E0AD2F4
:10436000710127484018202212B20021FFF7E4FC17
:10437000761CF6B2F2E7202212B200212148FFF7A4
:10438000DBFC0026042E0AD2F1001F484018082248
:1043900012B20021FFF7D0FC761CF6B2F2E7182229
:1043A00012B200211948FFF7C7FC134918480160F1
:1043B00000211848017000211748016000211748AA
:1043C0000170002116480180002116480160FF217C
:1043D00049B2154801700D2212B200211348FFF7AF
:1043E000ABFC002112480180002112480180DDF859
:1043F00000E001B0704700BFB806FF1FB804FF1F00
:104400000007FF1FE006FF1FC006FF1F9C04FF1FE1
:10441000BC06FF1FB604FF1F4007FF1F5B02FF1F04
:104420004407FF1F4807FF1FB704FF1F4C07FF1F6C
:084430004607FF1F5A07FF1F9A
:103D380081B013B20246C8B211461DB22CB26B1E36
:103D48001DB214B10870491CF8E7104601B070475D
:1044680083B0CDF800E001215D4801705D4900206E
:10447800FFF752FC20B110215B480170FF20ABE030
:10448800584901F5FF700078552801D00120A3E0B4
:1044980001F2FF100078AA2801D001209CE0002238
:1044A8000878E92802D10120C2B2FFE70878EB2892
:1044B80005D1881C0078902803D1012000E0D0B2F3
:1044C80000E0D0B2002848D0484A80201070111D62
:1044D800002008600192FFF7DBFA019A002801DA50
:1044E800012079E042480088002830D0414801780E
:1044F800414800780843C0B248B13E4800780302FA
:104508003D4800781B18511C0420087004E03B4803
:104518000368511C0620087039480068191A394880
:104528000088B1FBF0F10B4640F6F570814204D2E9
:10453800511C0120087001204EE04FF6F5708342AF
:1045480004D9511C0B200870012045E004E0511CDF
:104558000B20087001203FE03DE02B4C0023042B8A
:1045680016D2D900214841180A4620780870201D23
:104578000446511C00780870211D0C46101D02903D
:104588000846FFF78BF8029908605B1C9BB2E6E7C8
:104598001E480078C10015484018401C00780428BF
:1045A80013D01A480078C10010484018401C007801
:1045B80006280AD015480078C1000C484018401C4D
:1045C80000780E2801D0012006E0FFF761FA0028E4
:1045D80001DA012000E00020DDF800E003B07047B8
:1045E800B806FF1FB804FF1F5B02FF1FC006FF1FAE
:1045F800A604FF1FCC04FF1FCB04FF1FD804FF1F16
:10460800B004FF1F9E04FF1F7606FF1FB604FF1F9E
:103D200081B0CDF800E0034C2468A047DDF800E046
:083D300001B070476402FF1F9F
:102C540085B0CDF800E003460291FFF72DFE1E4A31
:102C64001278042A01D1184600E05802FF220146D6
:102C74001120FFF78DFF18B1FFF756FD012027E063
:102C8400FF20164C2468A047FE2800D0F8E7002354
:102C940099B2B1F5007F10D2029A52180492ADF89D
:102CA4000410FF200D4C2468A047BDF80410049ABA
:102CB40010704A1C93B299B2EBE7FF20074C2468CA
:102CC400A047FF20054C2468A047FFF72DFD0020F6
:102CD400DDF800E005B070475902FF1F6007FF1FD1
:102CF80083B0CDF800E003460291FFF7DBFD2B4AD5
:102D08001278042A01D1184600E05802FF22014631
:102D18001820FFF73BFF18B1FFF704FD012040E042
:102D2800FF20234C2468A047FF20214C2468A0479B
:102D3800FE201F4C2468A047002040F2FF1290425A
:102D48000FD8029A12181278D4B2ADF80400A0B2C3
:102D5800174C2468A047BDF80400421C91B288B201
:102D6800EBE7FF20124C2468A047FF20104C246892
:102D7800A047FF200E4C2468A04700F01F0292B223
:102D8800052A03D0FFF7CEFC02200AE0FF20084CFA
:102D98002468A047B0F1FF0F00D0F7E7FFF7C2FCA7
:102DA8000020DDF800E003B0704700BF5902FF1FA4
:042DB8006007FF1F92
:1033180084B0CDF800E004460B460BB9012036E036
:1033280001AA1046FDF792F840F20022029201220B
:103338000392194A019201AA1046FDF775F8174A37
:103348001268022A02D12046044602E062021046B0
:103358000446114E1D46FDF7B9FE18B1002E01D9DD
:10336800761EF8E70EB9012011E029462046FEF73F
:1033780029F808B101200AE000214FF00800FDF704
:1033880013FC00214FF00800FDF712FD0020DDF8C6
:1033980000E004B0704700BFFFFF0F005C02FF1F92
:1010D40082B0CDF800E04FF000014C480068019167
:1010E400FFF7EEFB01994A4801EA000010B94948AC
:1010F4000168F8E701F4803028B14FF48030FFF73D
:10110400C7F901207EE001F4003028B14FF400302B
:10111400FFF7BEF9012075E001F4002028B14FF477
:101124000020FFF7B5F901206CE04FF00300FFF752
:10113400AFF9002000F0A4F9014600F0004008B126
:1011440001205FE001F0804008B101205AE001F085
:10115400005008B1012055E001F0805008B1012091
:1011640050E001F0006008B101204BE001F0806024
:1011740008B1012046E001F0807008B1012041E08F
:1011840001F4000008B101203CE001F4800008B142
:10119400012037E001F4001008B1012032E001F42D
:1011A400801008B101202DE001F4002008B10120D5
:1011B40028E001F4802008B1012023E001F400308C
:1011C40008B101201EE001F4803008B1012019E0CB
:1011D40001F4004008B1012014E001F4804008B19A
:1011E40001200FE001F4005008B101200AE001F0F1
:1011F400080008B1012005E001F4807008B1002066
:1012040000E00120DDF800E002B070476002FF1F3B
:081214000100030030100B4043
:1008C40087B0CDF800E0034601A9084600F00CFB10
:1008D4000D2103914FF4003105914FF4C01106919D
:1008E4000BB11904029101A9084600F0ADFADDF834
:0608F40000E007B07047B0
:1013CC008CB0CDF800E003460C4607AA1046FFF798
:1013DC003BF840F2002208920122099207AA10461B
:1013EC00FFF720F84FF40070FFF70CF801AA104635
:1013FC00FFF776FD112203924FF4003205924FF461
:10140C00C0120692184A06920293099B089A5343FB
:10141C000B94164A1A40120442F0210242F00202C6
:10142C000A920B9B124A13600A9B124A13601148D2
:10143C00FFF718F801214FF00800FFF7B3FB01216B
:10144C004FF00800FFF7B2FC01AA1046FFF7F8FCBA
:10145C004FF00200FFF720F800B9F9E7FFF73AF96F
:10146C00DDF800E00CB0704711003800FFFF000001
:08147C008807FF1F8407FF1F12
:1030B00085B0CDF800E004460B460BB9012045E091
:1030C00002AA1046FDF7C6F940F20022039201223F
:1030D0000492204A029202AA1046FDF7A9F91E4A5C
:1030E0001268022A02D12046044602E0620210461B
:1030F0000446184E1D46FDF7EDFF18B1002E01D90C
:10310000761EF8E70EB9012020E029462046FEF79A
:1031100001F908B1012019E000214FF00800FDF786
:1031200047FD00214FF00800FDF746FE01AA1046BA
:10313000FDF70AFF08B1012008E09DF80420072AE6
:10314000F4D09DF80420062AF0D00020DDF800E03D
:0C31500005B07047FFFF0F005C02FF1F7E
:101314008CB0CDF800E003460C4607AA1046FFF750
:1013240097F840F2002208920122099207AA104677
:10133400FFF77CF84FF40070FFF768F801AA104635
:10134400FFF7D2FD182203924FF4003205924FF4B6
:10135400C0120692184A06920293099B089A5343B4
:101364000B94164A1A40120442F0210242F002027F
:101374000A920B9B124A13600A9B124A136011488B
:10138400FFF774F801214FF00800FFF70FFC01216B
:101394004FF00800FFF70EFD01AA1046FFF754FDB9
:1013A4004FF00200FFF77CF800B9F9E7FFF796F970
:1013B400DDF800E00CB0704701003800FFFF0000CA
:0813C4008807FF1F8407FF1FCB
:100F480083B0CDF800E04FF00002524909680192E1
:100F580002900846FFF7B2FC0298019A0346104631
:100F68004D4900EA010111B94C490868F8E700F455
:100F7800803129B14FF48030FFF788FA012084E0EE
:100F880000F4003129B14FF40030FFF77FFA012057
:100F98007BE000F4002129B14FF40020FFF776FA36
:100FA800012072E04FF00300FFF770FA002000F014
:100FB80065FA0246410A01F00F01C9B219703849B1
:100FC80002EA010109B900205FE002F0004109B11D
:100FD80001205AE002F0804109B1012055E002F0F9
:100FE800005109B1012050E002F0805109B10120FF
:100FF8004BE002F0006109B1012046E002F0806197
:1010080009B1012041E002F0807109B101203CE002
:1010180002F4000109B1012037E002F4800109B1AE
:10102800012032E002F4001109B101202DE002F4A0
:10103800801109B1012028E002F4002109B1012042
:1010480023E002F4802109B101201EE002F40031FE
:1010580009B1012019E002F4803109B1012014E03E
:1010680002F4004109B101200FE002F4804109B106
:1010780001200AE002F4005109B1012005E002F064
:10108800080109B1012000E00020DDF800E003B00C
:10109800704700BF6002FF1F0100030030100B40C3
:0410A80008E0FFFD60
:103A980081B0CDF800E0012131480170314800784B
:103AA800C10031484018001D0068304900F034F961
:103AB80028B110212E480170FF2040B24CE02D485B
:103AC800FEF7E0FD2C4908802C4801782C4801803D
:103AD8002C48FEF7D7FD2C4908802C4801782C4843
:103AE80001702C48FEF7CEFD2B4908802B48FEF7C5
:103AF800C9FD2B4B18801B480078C1001A48401894
:103B0800001D0168204800880A18264802601846E7
:103B180001881F480078484380B21418224B1C6063
:103B28001D480088410189B2134A1088B1FBF0F0A2
:103B380080B221181D4801601046008841081C48C1
:103B480001801046008841091A480180184601681A
:103B580019480160002040B2DDF800E001B070476C
:103B6800B806FF1FB604FF1FC006FF1FB804FF1FDB
:103B78005B02FF1FC304FF1F9C04FF1FC504FF1F38
:103B88009E04FF1FC604FF1FA004FF1FC804FF1FD9
:103B9800A204FF1FC904FF1FA404FF1FCE04FF1FB8
:103BA800A604FF1FA804FF1FAC04FF1FB004FF1FDB
:0C3BB800B404FF1F5C07FF1F4007FF1F45
:10268C0081B0411C09780A0292B20178511888B2C3
:04269C0001B07047D2
:1036A40081B0C11C09780A02811C097851180A02E8
:1036B400411C097851180A0201785118084601B0D2
:0236C40070474D
:1055D00084B0CDF800E0CCB201461D4A92F900201B
:1055E0008DF80C201B4A12788DF80D208DF80440A0
:1055F0000291E2B208460721FEF73AFD02999DF8B2
:10560000044043B200281DDA6FF00102934217D123
:105610009DF80D300F4A13709DF90C2053010E4A6E
:10562000D21802F21C0300221A80E2B208460721B7
:10563000FEF71EFD002801DA002004E0022002E04F
:10564000002000E00120DDF800E004B0704700BF5A
:0C565000B704FF1F5B02FF1F0007FF1FD5
:104070009BB0CDF800E007468DF864108DF86820FD
:104080003846FFF7BDFA28B11224874B1C70FF2079
:1040900040B204E139468548FFF79AFA844B1B8801
:1040A000BBB1844B93F900305C01834B1B194FF07B
:1040B00020061D46814C23782B70761E641C6D1CD7
:1040C000002EF8D100247A4B1C80FF2464B2794B77
:1040D0001C7014AB0D2212B274491846FFF7F4FAA3
:1040E00009AB19467148FFF743FC00284CDA9DF8EC
:1040F0006840C4F3C013002B40D040F20003ADF879
:104100005E304FF0000318939DF8683003F05803B9
:10411000DBB22BB10824644B1C70FF2040B2BEE020
:1041200001AB202212B200211846FFF705FE9DF8D0
:10413000683003F07F038DF80F3001AB0B2212B211
:104140005A491846FFF7C0FA0DF15E0518AC01ABED
:104150002A4621461846FFF705FB002802DAFF2011
:1041600040B29CE009AC14AB21461846FFF700FCB6
:10417000002802DAFF2040B291E005E00D244A4B0E
:104180001C70FF2040B28AE09DF8313003F05803E4
:10419000DBB22BB10824444B1C70FF2040B27EE000
:1041A0000020022825D24401434B1B1919461C3319
:1041B0001B88D3B18B1D1C88BDF84430A34214D199
:1041C00001F21C049DF8643023804FF020063B4D23
:1041D0000C46FFE723782B70761E641C6D1C002EA6
:1041E000F8D1344B187040B259E0431C99B288B2F0
:1041F000D7E70027022F4DD27C012F4B1B191C3310
:104200001B88002B42D17C012B4B1B199846202286
:1042100012B200211846FFF78FFD08F1060508F1DC
:104220000C04BDF84430238023882B8008F11C0443
:104230009DF864302380129BC8F8003008F1040414
:10424000BDF84C305B01238008F11804109B2360FB
:1042500008F1100508F10C031B889C1E184B1B88E5
:104260005C43184B1B681B192B604FF02006134D45
:104270004446B8B2FFE723782B70761E641C6D1C91
:10428000002EF8D10B4B187040B208E07B1C98B29E
:1042900087B2AFE70924044B1C70FE2040B2DDF862
:1042A00000E01BB0704700BF5B02FF1F4C07FF1F01
:1042B000FC06FF1FB704FF1F0007FF1FE006FF1FDC
:0842C0009E04FF1FB004FF1F64
:1036000081B0CDF800E004462046FEF7B7FFC2B215
:10361000C1B211B9FF2040B240E00C2A02D9FE200D
:1036200040B23BE021782E2902D1FD2040B235E0A6
:10363000002676B22546D3B2D0B22246002B12D94C
:10364000D11809782E290BD1012464B2082B02D994
:10365000FC2040B222E0591C09B2521863B204E0C7
:103660005B1EDBB2EAE72A4673B2012B04D00828BE
:1036700002D9FB2040B211E0012B0DD11046FEF71C
:103680007DFFC2B2C1B211B9F52040B206E0032AF3
:1036900002D9F42040B201E0002040B2DDF800E0A1
:0436A00001B07047BE
:10257C0081B0014608460B460246401C117801B159
:0C258C00FAE7C11A491E08B201B07047FE
:1035D00082B0CDF800E0002504460B460D2D0BD23D
:1035E000621901925A191278D0B2FFF73DFD019A83
:1035F00010706D1CEDB2F1E7DDF800E002B070472D
:1030680081B07A2808D8612807D34FF6DF7109B2F2
:0E30780000EA0101C8B2FFE7FFE701B07047B0
:1036C80081B00B46014618460D4614B2531E1AB275
:1036D80024B103782B706D1C401CF6E7084601B036
:0236E800704729
:1039700086B0CDF800E003900491039A12B9FF20BD
:1039800040B272E00398FFF75BFA3A4A13683A4A8A
:1039900012689A4204D1394A1288ADF8062006E02E
:1039A000374A1388374A12885A43ADF80620324AFC
:1039B00012680592344A02920598FFF76DFB0123C5
:1039C000324A13703048FFF7F9F90022ADF80420AD
:1039D000BDF80630BDF804209A423BD20B2212B249
:1039E00003990298FEF7A4FDF0B9FEF7D7FB28B1C2
:1039F0001023274A1370FF2040B236E0049A82B1A8
:103A000004990298FEF7C8FC049A02F22403059A6E
:103A10001A60049A02F22804029B1B4A9A1A52095D
:103A20002280002040B220E0029A02F2200302939A
:103A3000184A1268934207D1059A521C0592124AFD
:103A400002921148FFF7BAF9BDF80420521CADF8F4
:103A50000420BDE7FEF7A2FB28B110230C4A137027
:103A6000FF2040B201E0FF2040B2DDF800E006B0E8
:103A7000704700BFAC04FF1F4007FF1FA404FF1FD7
:103A80005C07FF1F9E04FF1FB804FF1FB806FF1F3F
:083A90005B02FF1FBC06FF1FD3
:102E400087B0CDF800E004A90D4604460194029530
:102E500003900B2212B20846202100F06DFF039868
:102E6000029D019C0646317831B13178C8B2FFF736
:102E700069F908B1761CF6E723493046FFF74EF9A9
:102E800038B904AA2E211170521C2E21117020462F
:102E900030E01E493046FFF741F920B904AA2E213F
:102EA0001170204626E022462C463346197871B12F
:102EB0001978C8B2FFF746F948B919782E2906D013
:102EC00019782170611C08465B1C0446EEE71978EE
:102ED0002E2901D1581C00E0184604AB083301909C
:102EE0001046019A1178202904D9117819705B1CB9
:102EF000521CF7E704A90B2212B200F0E5FBDDF843
:102F000000E007B0704700BF5402FF1F5702FF1FC9
:1021440081B0202806D00D2802D8092800D301E048
:0C215400002100E00121C8B201B070477A
:10211C0081B00091014600980A7832B10B780278B0
:10212C00934202D1491C401CF6E70B7802789A1AAC
:06213C0010B201B0704773
:1030980081B0CDF800E0034C2468A047DDF800E0DB
:0830A80001B070476C02FF1F2C
:1021600081B0CDF800E0024600F0A8FB0A490978EA
:10217000042901D1104600E05002FF22014612203E
:1021800000F008FD18B100F0D1FA012000E00020B5
:0C219000DDF800E001B070475902FF1FAD
:1019480081B0CDF800E0024600F0B4FF0E490978F6
:10195800042901D1104600E05002FF220146192057
:1019680001F014F918B100F0DDFE012008E0FF20B5
:10197800064C2468A047FF20044C2468A047002098
:10198800DDF800E001B070475902FF1F6007FF1F34
:1018D00083B0CDF800E01A4D0446FFF7FBFB18B1CA
:1018E000002D01D96D1EF8E70DB9012024E015493E
:1018F0000968022902D12046034602E06102084637
:1019000003464FF0200102914FF02001019101A9FF
:101910000846FFF763F91846FEF7A2FF08B1012059
:101920000AE001214FF02000FFF742F901214FF0BA
:101930002000FFF741FA0020DDF800E003B0704717
:08194000FFFF0F005C02FF1F16
:100860008AB0CDF800E003464FF00000FFF7D0FD5E
:1008700007A90846FFF7EEFD40F2002108914FF668
:10088000FF71099107A90846FFF7D2FD01A90846A3
:1008900000F02CFB122103914FF4003105914FF42D
:1008A000C011069106490691029301A9084600F07D
:1008B000CDFAFFF715FFDDF800E00AB0704700BF82
:0408C00030003800CC
:1018580083B0CDF800E01A4D0446FFF737FC18B105
:10186800002D01D96D1EF8E70DB9012024E01549B6
:101878000968022902D12046034602E061020846AF
:1018880003464FF0200102914FF02001019101A978
:101898000846FFF79FF91846FFF7A4F808B101209A
:1018A8000AE001214FF01000FFF77EF901214FF007
:1018B8001000FFF77DFA0020DDF800E003B0704764
:0818C800FFFF0F005C02FF1F8F
:1009EC008AB0CDF800E003464FF00000FFF70AFD97
:1009FC0007A90846FFF728FD40F2002108914FF6A1
:100A0C00FF71099107A90846FFF70CFD01A90846DB
:100A1C0000F066FA192103914FF4003105914FF45F
:100A2C00C011069106490691029301A9084600F0EF
:100A3C0007FAFFF74FFEDDF800E00AB0704700BF81
:040A4C00200038004E
:102DBC0081B0CDF800E0034C2468A047DDF800E0BA
:082DCC0001B070476802FF1F0F
:101A6C0085B0CDF800E0029000F022FFFF220021AB
:101A7C000A2001F089F818B100F052FE012026E08E
:101A8C00FF20154C2468A047FE2800D0F8E700235F
:101A9C009AB2102A10D2029989180491ADF8042038
:101AAC00FF200D4C2468A047BDF804200499087051
:101ABC00511C8BB29AB2ECE7FF20074C2468A0476C
:101ACC00FF20054C2468A04700F02AFE0020DDF81A
:0C1ADC0000E005B0704700BF6007FF1F6E
:1019F00085B0CDF800E0029000F060FFFF220021EA
:101A0000092001F0C7F818B100F090FE012026E08F
:101A1000FF20154C2468A047FE2800D0F8E70023DB
:101A20009AB2102A10D2029989180491ADF80420B4
:101A3000FF200D4C2468A047BDF8042004990870CD
:101A4000511C8BB29AB2ECE7FF20074C2468A047E8
:101A5000FF20054C2468A04700F068FE0020DDF858
:0C1A600000E005B0704700BF6007FF1FEA
:1019980085B0CDF800E00290FEF7F2FD00239AB280
:1019A800B2F5007F10D2029989180491ADF804208D
:1019B800FF200C4C2468A047BDF804200499087047
:1019C800511C8BB29AB2EBE7FF20064C2468A04763
:1019D800FF20044C2468A0470020DDF800E005B093
:0819E800704700BF6007FF1FFC
:1005880081B0CDF800E0FF20044C2468A047FE2885
:1005980000D0F8E7DDF800E001B070476007FF1F02
:101DBC0083B0CDF800E00290FC201D4C2468A047B5
:101DCC00002290B240F2FF1188420FD802990918F4
:101DDC000978CCB2ADF80400A0B2154C2468A04729
:101DEC00BDF80400411C8AB290B2EBE7FF20104C06
:101DFC002468A047FF200E4C2468A047FF200C4C01
:101E0C002468A04700F01F0189B2052903D000F017
:101E1C0087FC022008E0FF20054C2468A047B0F1A5
:101E2C00FF0F00D0F7E70020DDF800E003B07047AB
:041E3C006007FF1F1D
:101D780081B0014600200B46042816D282000C4987
:101D88008D180024042C0DD2810009B2611809B203
:101D9800C1F10E0109B25A18297811706D1C641C22
:101DA800E4B2EFE7401CC0B2E6E7002001B070479C
:041DB8006407FF1F9E
:1020D80081B0014600200B46042816D282000C4924
:1020E8008D180024042C0DD2810009B2611809B2A0
:1020F800C1F10E0109B25A18297811706D1C641CBF
:10210800E4B2EFE7401CC0B2E6E7002001B0704738
:042118007407FF1F2A
:1020100082B0CDF800E0002400220346FEF7E2FE85
:1020200000F4E00100292AD12A498C422BD84FF430
:102030000060FEF775FF012819D1002415461A46E5
:10204000202C0ED2A10051180191FEF7A9FD019993
:102050000860691C0D46802901D3284602E0641CF3
:10206000EEE7284602F280030024024600E0641CEA
:10207000802A00D300E0D1E71146204601E0204647
:1020800011460A4600E020461249884202D8802ABA
:1020900000D301E0012018E04FF48010FEF702FAAF
:1020A000012801D1012010E04FF48000FEF7FAF979
:1020B000012801D1012008E04FF40010FEF7F2F9E9
:1020C000012801D1012000E00020DDF800E002B08D
:0820D000704700BFFFFF1F0075
:100DE40081B00248006801B0704700BF30100B406A
:100F200081B004490968014009B1012000E00020B6
:080F300001B0704724100B40D2
:100BA00081B00248006801B0704700BF20100B40C0
:101CB00081B0CDF800E0002400220346FFF792F83F
:101CC00000F4E001002929D12A498C422AD84FF496
:101CD0008060FFF725F9012818D1002415461A461F
:101CE000202C0DD2A100511809680846FEF750FFBC
:101CF000691C0D46802901D3284602E0641CEFE7E9
:101D0000284602F280030024024600E0641C802A78
:101D100000D300E0D2E71146204601E020461146FC
:101D20000A4600E02046FEF773FC1249884202D8BA
:101D3000802A00D301E0012018E04FF48010FEF764
:101D4000B1FB012801D1012010E04FF48000FEF723
:101D5000A9FB012801D1012008E04FF40010FEF793
:101D6000A1FB012801D1012000E00020DDF800E006
:081D700001B07047FFFF1F00E6
:100B900081B00249086001B0704700BF20100B40CF
:1025300081B0ADF800200246BDF9000004B2431E90
:1025400018B25CB114780B789C4204D014780B78E4
:10255000E31A18B204E0521C491CEFE7002000B255
:0425600001B070470F
:10219C0081B0CDF800E0034C2468A047DDF800E0E6
:0821AC0001B070477002FF1F33
:1023980082B0CDF800E00246084615460446002102
:1023A800134608290AD22A78202A00D106E02A787A
:1023B8002270641C6D1C491C89B2F2E703F2080202
:1023C80011461278202A16D02E222270661C00226E
:1023D80005460C4691B203290AD22278202A00D158
:1023E80006E022783270761C641C491C89B2F2E738
:1023F80030461E4602E01E46054620460022027070
:1024080005F20D0306F20B0212781A7005F21C028F
:10241800019206F21C02104601F040F9019A106080
:1024280005F22002019206F21A02104600F02AF97B
:10243800019A108006F20E021378521C12781202CA
:1024480092B29C18A4B2A0B205F20E02D31CE20A02
:102458001A7005F20E02131D420992B202F03F02F1
:102468001A7005F20E02531D00F01F0292B25200BC
:102478001A7006F210021378521C1278120292B2E5
:102488009C18A4B2A0B205F20E02931C04F01F021D
:102498001A7005F20E02531C420992B202F00F02A2
:1024A8001A7005F20E03420A1A7006F21602137821
:1024B800521C1278120292B29C18A4B2A0B205F271
:1024C8001402D31CE20A1A7005F21402131D420901
:1024D80092B202F03F021A7005F21402531D00F086
:1024E8001F0292B252001A7006F218021378521C98
:1024F8001278120292B29C18A4B2A0B205F2140289
:10250800931C04F01F021A7005F21402531C4209AE
:1025180092B202F00F021A7005F21403420A1A70FE
:08252800DDF800E002B070478D
:1037640087B0CDF800E0049005910692049B1A33CB
:103774001846FEF789FF069B1880069B1B88B3B981
:10378400FEF796FD069B1880069B1C884FF6FF7378
:103794009C4205D10424674B1C70FF2040B2C5E055
:1037A400069B1B884FF6FF7198B2FEF70BFD069B34
:1037B4001B889C1E604B1B885C43604B1B681C1958
:1037C400059B1C605E4B1C685E4B1B68A34204D1C6
:1037D4005D4B1B88ADF80A3006E05C4B1C88564BE9
:1037E4001B886343ADF80A30564B1B680393584853
:1037F40001900398FFF74EFC0124564B1C7054486B
:10380400FFF7DAFA01980023ADF808300146BDF855
:103814000A40BDF80830A34280F07A800B78E52B8B
:1038240003D00B78202B00D35AE00191FEF7B4FCAF
:10383400019928B110243F4B1C70FF2040B275E061
:103844000191202212B208460499FFF73BFF019927
:1038540001F21A04069B1B8803F0FF03237001F294
:103864001A035C1C069B1B881B0A237001F20E04BE
:10387400394B1B78237001F20E035C1C374E3378EE
:10388400237001F21004364B1B78237001F21003ED
:103894005C1C344D2B78237001F216042E4B1B78DC
:1038A400237001F216035C1C33461B78237001F26B
:1038B40018042B4B1B78237001F218035C1C2B4655
:1038C4001B78237022490398FEF78AF928B105244E
:1038D400184B1C70FF2040B228E0002040B225E0C5
:1038E40001F220042746204B1B689C4209D1039B0C
:1038F4005B1C0393164F01971548FFF75DFA019F70
:10390400FFE7BDF808305B1CADF8083039467EE7A8
:10391400FEF742FC28B11024064B1C70FF2040B275
:1039240004E00624034B1C70FF2040B2DDF800E0E5
:1039340007B070475B02FF1F9E04FF1FB004FF1F08
:10394400AC04FF1F4007FF1FA404FF1F5C07FF1FF9
:10395400B804FF1FB806FF1F4607FF1F4707FF1FD6
:0C3964005A07FF1F5B07FF1FBC06FF1F78
:1022B40083B0CDF800E0304A1188304800884843A4
:1022C400ADF804000220ADF806001046018840F283
:1022D4000200B0FBF1F080B281B2294800680B180B
:1022E4001046028840F20201B1FBF2F002FB10102A
:1022F40080B2410089B2234840180290184600F089
:10230400C9FE0121204801701E4800F055FDBDF8AA
:102314000410BDF80600884215D20298008800B95E
:1023240011E00298811C0291BDF80600401CADF832
:10233400060016480068814204D1124802901148F0
:1023440000F03AFDE3E7FFF727FF28B1102110481A
:1023540001704FF6FF700AE0BDF80410BDF80600E6
:10236400884202D14FF6FF7001E0BDF80600DDF8A7
:1023740000E003B0704700BFB404FF1FA604FF1FB2
:10238400A804FF1FB804FF1FB806FF1FBC06FF1FE9
:042394005B02FF1FCA
:1021C80085B0CDF800E0ADF8101081B2304A128821
:1021D800B1FBF2F292B203922E4A1368039AD41812
:1021E800039401232C4A1370ADF804102B492046A0
:1021F80001F092FDBDF8041028B11023284A13708D
:102208004FF6FF7040E0224A1388B1FBF3F203FB5C
:10221800121292B253009BB298B2204AD31804AC5F
:1022280022781A70431C9BB21C4AD318621C12787D
:102238001A701A490398FFF7D1FC28B10523184AE8
:1022480013704FF6FF701FE00122ADF80820154A01
:102258001378BDF808209A4215D2134A1388039AB6
:10226800D21803920D491046FFF7B8FC28B1052390
:102278000B4A13704FF6FF7006E0BDF80820521C99
:10228800ADF80820E3E70020DDF800E005B070476E
:10229800B404FF1FA804FF1FB806FF1FB804FF1FE0
:0C22A8005B02FF1FA204FF1FA604FF1F23
:101BE40081B0CDF800E0034C2468A047DDF800E0A4
:081BF40001B070477402FF1FED
:10582C0081B0CDF800E03848FFF712FD374802216F
:10583C00FFF748FC34480068B0F5007F2ED90021F2
:10584C003348018032480088B0F5007F0AD23048D6
:10585C00018830484018FFF71DFD2D490888401C71
:10586C000880EFE700212A48018029480088102889
:10587C000ED227480088410189B226484018FFF70C
:10588C00A1FC00B1F5E722490888401C0880ECE730
:10589C001D490868A0F500700860CBE700211C4882
:1058AC000180194801681A48008888420AD21848B1
:1058BC00018818484018FFF7EDFC15490888401C72
:1058CC000880EEE70021124801800F48016810485B
:1058DC00008888420DD20E4801880E484018C0B28C
:1058EC00FFF790FC00B1F6E709490888401C0880D6
:1058FC00EBE709480221FFF7E5FBFFF7D3FADDF8E8
:10590C0000E001B0704700BF9002FF1F3302FF1F81
:0C591C004402FF1F9402FF1F4602FF1F01
:10525C0082B0CDF800E00C49098801F0010189B257
:10526C0029B900210160072208490A7007E0019062
:10527C000020FFF71BFB0198054909680160DDF868
:10528C0000E002B0704700BFFC06FF1F5B02FF1F6F
:04529C00F806FF1FF2
:1048B80082B0CDF800E03749098829B9072236497E
:1048C8000A704FF0FF3061E0012234490A70344920
:1048D8000968884204D932490A6832490A6001E005
:1048E8003049086030490A882E490968B1FBF2F25C
:1048F8002E490988B2FBF1F188B22D490A882D4961
:104908000A8082B2002A1AD92A490988ADF80420F7
:1049180088B2FEF7E7FEBDF80420264908804FF666
:10492800FF71884208D11E490A681E490A600A2296
:1049380019490A70002029E0521E92B2E2E71A4E85
:104948003288184D2968B1FBF2F2184C2188B2FB65
:10495800F1F301FB132318490B80164909888A1EB5
:10496800214609884A43154909688A1899B2521894
:1049780013490A6031460B8829460968B1FBF3F2EE
:1049880003FB12120F490A8029460868DDF800E087
:1049980002B07047FC06FF1F5B02FF1FB806FF1F2F
:1049A800F806FF1FE806FF1F9C04FF1F9E04FF1F59
:1049B800E606FF1FEC06FF1FF406FF1FB004FF1FEB
:0849C800F006FF1FF606FF1FB9
:1036EC0082B0CDF800E084B216490988B4FBF1F140
:1036FC0089B288B2144909684318012213490A7027
:10370C00ADF804401249184600F004FBBDF8044023
:10371C0028B110220F490A704FF6FF700DE00949CD
:10372C000A88B4FBF2F102FB114189B24A0092B251
:10373C00074989180846FEF7A3FFDDF800E002B040
:10374C00704700BFB404FF1FA804FF1FB806FF1F7B
:08375C00B804FF1F5B02FF1F10
:1052A00082B0CDF800E004464149098801F00101CF
:1052B00089B219B907223F490A7075E03E490A6868
:1052C0003E490968914203D30B223A490A706BE0C8
:1052D0003B490988B1F5007F40F0458000223849FC
:1052E0000A80384B19884A1C92B21A8036490988BC
:1052F0008A4223D1002233490A8034490988019423
:1053000088B2FEF7F3F9019C304908804FF6FF712F
:10531000884207D128490A6828490A600A22254993
:105320000A7041E0294909888A1E274909884A43A9
:10533000274909688A1827490A6003E0254A116845
:10534000491C1160002224490A702249096801940D
:1053500008462249FEF7E4FC019C18B110221549C9
:105360000A7021E012E01C49097879B100221A493B
:105370000A7018490968019408461849FEF7D0FCDC
:10538000019C18B110220B490A700DE00C4B1A88D1
:10539000124989180978217019460988491C198011
:1053A000064A1168491C1160DDF800E002B0704740
:1053B000FC06FF1F5B02FF1FF806FF1FE806FF1F2A
:1053C000F606FF1FF406FF1F9E04FF1FEC06FF1FDB
:1053D000B004FF1FF006FF1FB806FF1FB804FF1F31
:1051D00082B0CDF800E001900B4C2468A04708B9DC
:1051E00001200CE00020094C2468A04720210198F0
:1051F000FFF792FE0120054C2468A0470020DDF84F
:1052000000E002B0704700BFA807FF1FAC07FF1FF8
:1052100083B0CDF800E0C1B20E4C24688DF80410C4
:10522000A0479DF8041008B901200FE08DF8081080
:105230000020094C2468A04702A908460121FFF775
:105240006BFE0120044C2468A0470020DDF800E03C
:0C52500003B07047A807FF1FAC07FF1F4A
:1059A80090B072B697480190974802909748039034
:1059B800974804909748059097480690974807900D
:1059C800974808909748099097480A9097480B90ED
:1059D80097480C90974998480D9098480E900D98C4
:1059E80000F007000F9001F0010050B94CF2205070
:1059F800934908804DF62810088040F2D21191484A
:105A080001809148007800F0010050B18F4800787B
:105A180000F0080020B18D49087840F008000870AF
:105A280021E08B48006840F00051894801608948AE
:105A3800006800F48070B0B9864801686FF470504F
:105A480001EA000040F44071824801608148006822
:105A580040F480717F4801607E4801686FF40070EF
:105A680001407C480160AA217B4801700D9800F034
:105A7800100060B9794801786FF0600001407748FC
:105A8800017077480078012800D0FAE71CE00D98EB
:105A980000F01000C0B10E997248814208D9602107
:105AA8006E4801706E480078802800D0FAE70BE055
:105AB8006A4801786FF060000140684801706848E2
:105AC8000078012800D0FAE7049967480160674820
:105AD80001686FF440200140029800F4402001431F
:105AE80062480160624801686FF4403001400398E1
:105AF80000F4403001435E4801600F9830B10F98C0
:105B0800012803D00F98022800D061E0019800F026
:105B1800800050B9089800F0400028B10B9800F0B8
:105B28000300002800D100E015E05248006840F466
:105B380000715048016050480168504801404E4883
:105B48000160069800F0040028B14D4801684B48F0
:105B580001404B4801600A994A48017005994A4832
:105B68000170059800F0040038B14848007800F04A
:105B78001000002800D1F8E705E04448007800F05C
:105B8800100000B1F9E74248007800F0BF01C9B23F
:105B9800069800F0FD0001433D480170079800F0A9
:105BA800E0013C48007800F01F00014339480170CB
:105BB8000199394801700B99384801700F980228EB
:105BC80005D13348007840F0020131480170B8E04F
:105BD800019800F0800020B90B9800F0030000B194
:105BE80065E02448006840F40071224801602248BA
